:020000040800F2
:1000000000000220010B0008410A0008490A00080C
:10001000510A0008590A0008610A0008000000009F
:10002000000000000000000000000000690A000855
:10003000770A000800000000850A0008930A0008FB
:10004000510B0008510B0008510B0008510B000820
:10005000510B0008510B0008510B0008510B000810
:10006000510B0008510B0008510B0008510B000800
:10007000510B0008510B0008510B0008510B0008F0
:10008000510B0008510B0008510B0008510B0008E0
:10009000510B0008510B0008510B0008510B0008D0
:1000A000510B0008510B0008510B0008510B0008C0
:1000B000510B0008510B0008510B0008510B0008B0
:1000C000510B0008510B0008510B0008510B0008A0
:1000D000510B0008510B0008510B0008510B000890
:1000E000510B0008510B0008510B0008510B000880
:1000F000510B0008510B0008510B0008510B000870
:10010000510B0008A10A0008510B0008510B000810
:10011000510B0008510B0008510B0008510B00084F
:10012000510B0008510B0008510B0008B50A0008DC
:10013000510B0008510B0008510B0008510B00082F
:10014000510B0008510B0008510B0008510B00081F
:10015000510B0008C90A0008510B0008510B000898
:10016000510B0008510B0008510B0008510B0008FF
:10017000510B0008510B0008510B00080000000053
:08018000510B0008510B0008AF
:1001880010B5054C237833B9044B13B10448AFF3C9
:1001980000800123237010BD0C0000200000000027
:1001A800A051000808B5034B1BB103490348AFF33E
:1001B800008008BD0000000010000020A0510008C9
:1001C80053B94AB9002908BF00281CBF4FF0FF31B6
:1001D8004FF0FF3000F088B9ADF1080C6DE904CE9E
:1001E80000F006F8DDF804E0DDE9022304B070470A
:1001F8002DE9F047089D8E4604468846002B4AD1D3
:100208008A42174662D9B2FA82F64EB1C6F1200385
:1002180001FA06F820FA03F3B74043EA0808B440A5
:100228004FEA174E1FFA87FCB8FBFEF1230C0EFBB2
:10023800118843EA084301FB0CF29A4209D9FB18DA
:1002480001F1FF3080F0EA809A4240F2E7800239FB
:100258003B449A1AA3B2B2FBFEF00EFB102243EA0B
:10026800024300FB0CFC9C4509D9FB1800F1FF3246
:1002780080F0D6809C4540F2D3803B44023840EA67
:100288000140A3EB0C0300211DB1F3400022C5E996
:100298000032BDE8F0878B4205D90DB1C5E90001F0
:1002A80000210846F5E7B3FA83F1002946D17345E2
:1002B80002D3824200F20581841A6EEB0302012008
:1002C8009046002DE5D0C5E90048E2E7002A00F095
:1002D8009080B2FA82F6002E40F0A4808A1A030CAD
:1002E8004FEA174E80B2BCB20121B2FBFEFC0EFBF6
:1002F8001C2243EA024304FB0CF29A4207D9FB187A
:100308000CF1FF3802D29A4200F2E080C4469B1AF0
:10031800B3FBFEF20EFB123340EA034302FB04F484
:100328009C4207D9FB1802F1FF3002D29C4200F22E
:10033800CA8002461B1B42EA0C40A5E7C1F1200611
:100348008B4022FA06F71F430EFA01F420FA06F34F
:100358002EFA06FE4FEA1749234300FA01F81FFA5E
:1003680087FCBEFBF9F01C0C09FB10EE44EA0E44B6
:1003780000FB0CFEA64502FA01F209D93C1900F16E
:10038800FF3A80F09C80A64540F2998002383C44B0
:10039800A4EB0E041FFA83FEB4FBF9F309FB134424
:1003A8004EEA044403FB0CFCA44508D93C1903F1AC
:1003B800FF3E80F08280A4457FD9023B3C4443EA5B
:1003C8000040A4EB0C04A0FB02EC64457346E14634
:1003D80062D35FD05DB1B8EB030264EB090404FAA1
:1003E80006F622FA01F31E43CC40C5E90064002159
:1003F8004FE7B1FBF2FC010C41EA0E4180B240EA42
:1004080001423B4638463C46B846BE462026B1FB2C
:10041800F7F1A2EB080241EA0C4166E7014618E74A
:1004280010462CE7C6F120022EFA02F3B740B1407D
:1004380020FA02F24FEA174E0A43B3FBFEF8BCB2A9
:100448000EFB1833110C41EA034108FB04F9B040D4
:1004580089454FEA104380B23ED9791808F1FF3C2C
:1004680001D289451FD8A1EB0901B1FBFEF909FBAF
:1004780004F80EFB191192B242EA0142424529D210
:10048800BA1809F1FF31C4D24245C2D2A9F102011A
:100498003A44BEE7F0459DD2BEEB02036CEB070C75
:1004A8000138E14696E7A7EB09094944A8F1020C8F
:1004B800B1FBFEF909FB04F8DBE773467FE750461A
:1004C80066E70846FDE63B44023A33E7ACF1020C26
:1004D8003B441CE749469CE7A1EB0901C446B1FB34
:1004E800FEF909FB04F8C4E7704700BF80B500AF08
:1004F80000F02CFB00F04CF800F00EF900F0E4F8E6
:1005080000F0AEF803F002FF01221C491C4804F079
:1005180075FD03461A461B4B1A70012240211A48E2
:1005280001F0F6F901228021174801F0F1F9154B85
:100538001B78002B0AD000228021134801F0E8F92B
:1005480001221021114801F0E3F909E000224021BD
:100558000D4801F0DDF9012220210C4801F0D8F9FD
:10056800084B1B78002BFBD12021084801F0E9F942
:100578004FF47A7000F05CFBF2E700BFB851000856
:100588006C0100209C03002000000240000802408B
:1005980080B594B000AF07F120033022002118463F
:1005A80004F0CDFD07F10C0300221A605A609A602E
:1005B800DA601A610023BB60274B1B6C264A43F0A4
:1005C80080531364244B1B6C03F08053BB60BB68DF
:1005D80000237B60214B1B68204A43F4804313604F
:1005E8001E4B1B6803F480437B607B6802233B62DD
:1005F8000123FB6210233B630223BB630023FB63DD
:1006080010233B64C0237B640223BB640423FB6484
:1006180007F12003184601F0AFF90346002B01D07B
:1006280000F0ECF80F23FB6000233B6100237B61A3
:100638000023BB610023FB6107F10C03002118466E
:1006480001F012FC0346002B01D000F0D7F800BFE0
:100658005037BD4680BD00BF0038024000700040E2
:1006680080B500AF164B174A1A60154B00225A6026
:10067800134B00229A60124B0022DA60104B4FF4A1
:1006880000621A610E4B00225A610D4B02229A61D8
:100698000B4B00221A610A4801F092FD0346002B19
:1006A80001D000F0ABF84FF40061054802F058FBA8
:1006B8000346002B01D000F0A1F800BF80BD00BFA9
:1006C80028000020002C014080B582B000AF002334
:1006D8007B60104B1B6B0F4A43F4800313630D4B75
:1006E8001B6B03F480037B607B68002200213B20A6
:1006F80000F09DFB3B2000F0B6FB002200214520C6
:1007080000F095FB452000F0AEFB00BF0837BD4662
:1007180080BD00BF0038024080B588B000AF07F147
:100728000C0300221A605A609A60DA601A6100238A
:10073800BB602F4B1B6B2E4A43F0040313632C4BF7
:100748001B6B03F00403BB60BB6800237B60284B72
:100758001B6B274A43F001031363254B1B6B03F004
:1007680001037B607B6800233B60214B1B6B204AA5
:1007780043F0080313631E4B1B6B03F008033B6035
:100788003B680022C0211B4801F0C2F8002230213A
:10079800194801F0BDF84FF40053FB6000233B619A
:1007A80001237B6107F10C031946134800F014FF7D
:1007B800C023FB6001233B6100237B610023BB61F5
:1007C80007F10C0319460B4800F006FF3023FB60C5
:1007D80001233B6100237B610023BB6107F10C030C
:1007E8001946054800F0F8FE00BF2037BD4680BD19
:1007F80000380240000002400008024080B400AF08
:1008080072B600BF00BFFDE780B483B000AF00231D
:100818007B60104B5B6C0F4A43F4804353640D4B71
:100828005B6C03F480437B607B6800233B60094B6F
:100838001B6C084A43F080531364064B1B6C03F08F
:1008480080533B603B6800BF0C37BD465DF8047BB6
:10085800704700BF0038024080B58AB000AF7860AA
:1008680007F1140300221A605A609A60DA601A616C
:100878007B681B68684A934240F0C98000233B614B
:10088800664B5B6C654A43F400635364634B5B6C73
:1008980003F400633B613B690023FB605F4B1B6B08
:1008A8005E4A43F0040313635C4B1B6B03F00403C1
:1008B800FB60FB680023BB60584B1B6B574A43F037
:1008C80008031363554B1B6B03F00803BB60BB683D
:1008D8004FF4F8537B610223BB610023FB610323C0
:1008E8003B620C237B6207F1140319464C4800F065
:1008F80073FE04237B610223BB610023FB61032396
:100908003B620C237B6207F114031946454800F04B
:1009180063FE454B454A1A60434B4FF000625A60EC
:10092800414B00229A60404B0022DA603E4B4FF464
:1009380080621A613C4B4FF480525A613A4B4FF433
:1009480080429A61384B2022DA61374B00221A62C2
:10095800354B04225A62344B03229A62324B4FF4CD
:100968000002DA62304B4FF400121A632E4800F08E
:1009780095FA0346002B01D0FFF740FF7B682A4A0F
:100988001A64294A7B689363294B2A4A1A60284BC0
:100998004FF000625A60264B40229A60244B002296
:1009A800DA60234B4FF480621A61214B4FF4805276
:1009B8005A611F4B4FF480429A611D4B2022DA6125
:1009C8001B4B00221A621A4B04225A62184B03224C
:1009D8009A62174B4FF40002DA62154B4FF400127B
:1009E8001A63134800F05AFA0346002B01D0FFF7A8
:1009F80005FF7B680E4ADA630D4A7B689363002221
:100A08000021312000F013FA312000F02CFA00BF49
:100A18002837BD4680BD00BF002C01400038024089
:100A280000080240000C0240AC000020586402405C
:100A38000C010020A064024080B400AF00BFFDE7B5
:100A480080B400AF00BFFDE780B400AF00BFFDE792
:100A580080B400AF00BFFDE780B400AF00BFFDE782
:100A680080B400AF00BFBD465DF8047B704780B41A
:100A780000AF00BFBD465DF8047B704780B400AF8F
:100A880000BFBD465DF8047B704780B500AF00F03D
:100A9800AFF800BF80BD000080B500AF024801F08C
:100AA800FFFD00BF80BD00BF2800002080B500AF5B
:100AB800024800F01BFB00BF80BD00BFAC00002057
:100AC80080B500AF024800F011FB00BF80BD00BF39
:100AD8000C01002080B400AF064BD3F88830054ADB
:100AE80043F47003C2F8883000BFBD465DF8047B4C
:100AF800704700BF00ED00E0DFF834D0FFF7EAFFF1
:100B08000C480D490D4A002302E0D458C450043360
:100B1800C4188C42F9D30A4A0A4C002301E0136036
:100B28000432A242FBD304F013FBFFF7DFFC70474B
:100B380000000220000000200C000020F8510008EE
:100B48000C000020E8030020FEE7000080B500AF9D
:100B58000E4B1B680D4A43F4007313600B4B1B6864
:100B68000A4A43F480631360084B1B68074A43F43E
:100B780080731360032000F04FF90F2000F008F88D
:100B8800FFF742FE0023184680BD00BF003C02402C
:100B980080B582B000AF7860124B1A68124B1B7890
:100BA80019464FF47A73B3FBF1F3B2FBF3F318462B
:100BB80000F067F90346002B01D001230EE07B68A3
:100BC8000F2B0AD8002279684FF0FF3000F02FF978
:100BD800064A7B681360002300E0012318460837A3
:100BE800BD4680BD00000020080000200400002051
:100BF80080B400AF064B1B781A46064B1B6813449B
:100C0800044A136000BFBD465DF8047B704700BF0F
:100C180008000020A003002080B400AF034B1B682D
:100C28001846BD465DF8047B704700BFA00300204E
:100C380080B584B000AF7860FFF7EEFFB8607B68DE
:100C4800FB60FB68B3F1FF3F05D00A4B1B781A46DF
:100C5800FB681344FB6000BFFFF7DEFF0246BB687A
:100C6800D31AFA689A42F7D800BF00BF1037BD46BA
:100C780080BD00BF0800002080B485B000AF786058
:100C88007B6803F00703FB600C4BDB68BB60BA684A
:100C98004FF6FF031340BB60FB681A02BB6813439F
:100CA80043F0BF6343F40033BB60044ABB68D360BE
:100CB80000BF1437BD465DF8047B704700ED00E0C7
:100CC80080B400AF044BDB681B0A03F00703184627
:100CD800BD465DF8047B704700ED00E080B483B04A
:100CE80000AF0346FB7197F90730002B0BDBFB794C
:100CF80003F01F02074997F907305B09012000FA42
:100D080002F241F8232000BF0C37BD465DF8047B92
:100D1800704700BF00E100E080B483B000AF034635
:100D28003960FB7197F90730002B0ADB3B68DAB2B0
:100D38000C4997F907301201D2B20B4483F800230B
:100D48000AE03B68DAB20849FB7903F00F03043B79
:100D58001201D2B20B441A7600BF0C37BD465DF8BB
:100D6800047B704700E100E000ED00E080B489B04A
:100D780000AFF860B9607A60FB6803F00703FB61B5
:100D8800FB69C3F10703042B28BF0423BB61FB697C
:100D98000433062B02D9FB69033B00E000237B6187
:100DA8004FF0FF32BB6902FA03F3DA43BB681A401B
:100DB8007B699A404FF0FF317B6901FA03F3D9430D
:100DC8007B680B40134318462437BD465DF8047B07
:100DD8007047000080B582B000AF78607B68013B47
:100DE800B3F1807F01D301230FE00A4A7B68013BFE
:100DF80053600F214FF0FF30FFF78EFF054B0022A5
:100E08009A60044B07221A60002318460837BD462B
:100E180080BD00BF10E000E080B582B000AF786010
:100E28007868FFF729FF00BF0837BD4680BD80B549
:100E380086B000AF0346B9607A60FB7300237B611C
:100E4800FFF73EFF78617A68B9687869FFF78EFF27
:100E5800024697F90F3011461846FFF75DFF00BFAD
:100E68001837BD4680BD80B582B000AF0346FB7120
:100E780097F907301846FFF731FF00BF0837BD461E
:100E880080BD80B582B000AF78607868FFF7A2FFB8
:100E9800034618460837BD4680BD000080B586B0B9
:100EA80000AF786000237B61FFF7B6FE38617B688E
:100EB800002B01D1012399E07B68022283F83520B9
:100EC8007B68002283F834207B681B681A687B687B
:100ED8001B6822F001021A600FE0FFF79DFE024630
:100EE8003B69D31A052B08D97B6820225A657B6891
:100EF800032283F83520032378E07B681B681B688E
:100F080003F00103002BE8D17B681B681B687B6139
:100F18007A69384B13407B617B685A687B689B68A9
:100F28001A437B68DB681A437B681B691A437B6832
:100F38005B691A437B689B691A437B68DB691A43C0
:100F48007B681B6A13437A6913437B617B685B6A1E
:100F5800042B07D17B68DA6A7B681B6B13437A69B9
:100F680013437B617B681B687A691A607B681B681E
:100F78005B697B617B6923F007037B617B685B6A44
:100F88007A6913437B617B685B6A042B17D17B68A2
:100F98009B6A7A6913437B617B68DB6A002B0ED0FE
:100FA800786800F09DFA0346002B08D07B68402241
:100FB8005A657B68012283F83520012316E07B6897
:100FC8001B687A695A61786800F054FA0346FB6036
:100FD8007B68DB6D3F229A40FB689A607B68002241
:100FE8005A657B68012283F8352000231846183794
:100FF800BD4680BD3F8010F080B586B000AFF86078
:10100800B9607A603B600023FB75FB689B6D3B61B0
:10101800FB6893F83430012B01D1022340E0FB68D0
:10102800012283F83420FB6893F83530DBB2012BBA
:101038002FD1FB68022283F83520FB6800225A650D
:101048003B687A68B968F86800F0E6F9FB68DB6D18
:101058003F229A403B699A60FB681B681A68FB68E4
:101068001B6842F016021A60FB681B6C002B07D045
:10107800FB681B681A68FB681B6842F008021A6064
:10108800FB681B681A68FB681B6842F001021A605B
:1010980005E0FB68002283F834200223FB75FB7D02
:1010A80018461837BD4680BD80B483B000AF78605D
:1010B8007B6893F83530DBB2022B04D07B68802242
:1010C8005A6501230CE07B68052283F835207B688C
:1010D8001B681A687B681B6822F001021A600023EB
:1010E80018460C37BD465DF8047B704780B586B05E
:1010F80000AF78600023BB608E4B1B688E4AA2FB52
:1011080003239B0A7B617B689B6D3B613B691B6882
:10111800FB607B68DB6D08229A40FB681340002B5C
:101128001AD07B681B681B6803F00403002B13D0DC
:101138007B681B681A687B681B6822F004021A60C7
:101148007B68DB6D08229A403B699A607B685B6D1F
:1011580043F001027B685A657B68DB6D01229A4087
:10116800FB681340002B12D07B681B685B6903F097
:101178008003002B0BD07B68DB6D01229A403B6912
:101188009A607B685B6D43F002027B685A657B68F6
:10119800DB6D04229A40FB681340002B12D07B6859
:1011A8001B681B6803F00203002B0BD07B68DB6D08
:1011B80004229A403B699A607B685B6D43F00402A5
:1011C8007B685A657B68DB6D10229A40FB68134088
:1011D800002B43D07B681B681B6803F00803002BB7
:1011E8003CD07B68DB6D10229A403B699A607B6833
:1011F8001B681B6803F48023002B18D07B681B68CE
:101208001B6803F40023002B08D17B681B6C002BA0
:1012180024D07B681B6C786898471FE07B689B6CC0
:10122800002B1BD07B689B6C7868984716E07B681E
:101238001B681B6803F48073002B07D17B681B684D
:101248001A687B681B6822F008021A607B681B6CAE
:10125800002B03D07B681B6C786898477B68DB6D34
:1012680020229A40FB681340002B00F08F807B6897
:101278001B681B6803F01003002B00F087807B6855
:10128800DB6D20229A403B699A607B6893F8353081
:10129800DBB2052B36D17B681B681A687B681B6834
:1012A80022F016021A607B681B685A697B681B6803
:1012B80022F080025A617B681B6C002B03D17B688B
:1012C8009B6C002B07D07B681B681A687B681B68BF
:1012D80022F008021A607B68DB6D3F229A403B6966
:1012E8009A607B68012283F835207B68002283F8A6
:1012F80034207B681B6D002B7ED07B681B6D786863
:10130800984779E07B681B681B6803F48023002BEF
:101318001DD07B681B681B6803F40023002B0DD1CC
:101328007B685B6C002B31D07B685B6C7868984776
:101338002CE000BF00000020B5814E1B7B68DB6BF2
:10134800002B23D07B68DB6B786898471EE07B68AE
:101358001B681B6803F48073002B0FD17B681B6824
:101368001A687B681B6822F010021A607B680122E9
:1013780083F835207B68002283F834207B68DB6B98
:10138800002B03D07B68DB6B786898477B685B6DC4
:10139800002B32D07B685B6D03F00103002B22D059
:1013A8007B68052283F835207B681B681A687B6890
:1013B8001B6822F001021A60BB680133BB607A69BE
:1013C8009A4207D37B681B681B6803F00103002B54
:1013D800F2D100E000BF7B68012283F835207B68EA
:1013E800002283F834207B68DB6C002B05D07B68F7
:1013F800DB6C7868984700E000BF1837BD4680BDB1
:1014080080B483B000AF78607B685B6D18460C379A
:10141800BD465DF8047B704780B485B000AFF860C6
:10142800B9607A603B60FB681B681A68FB681B68D8
:1014380022F480221A60FB681B683A685A60FB68CD
:101448009B68402B08D1FB681B687A689A60FB6828
:101458001B68BA68DA6007E0FB681B68BA689A60BC
:10146800FB681B687A68DA6000BF1437BD465DF810
:10147800047B704780B485B000AF78607B681B68D8
:10148800DBB2103B144AA2FB03231B09FB60134A7F
:10149800FB6813441B781A467B68DA65FB68032BE4
:1014A80009D97B681B6823F47F7323F003031A1D93
:1014B8007B689A6507E07B681B6823F47F7323F0D9
:1014C80003037A6893657B689B6D18461437BD469D
:1014D8005DF8047B704700BFABAAAAAACC510008EC
:1014E80080B485B000AF78600023FB737B689B6A8B
:1014F800BB607B689B69002B1FD1BB68032B56D848
:1015080001A252F823F000BF211500083315000886
:1015180021150008B71500087B68DB6A03F08073A3
:10152800002B46D00123FB7343E07B68DB6AB3F1F1
:10153800C07F40D10123FB733DE07B689B69B3F515
:10154800005F21D1BB68032B37D801A252F823F0E2
:10155800691500086F15000869150008811500084D
:101568000123FB7330E07B68DB6A03F08073002B98
:1015780025D00123FB7322E07B68DB6AB3F1C07FCF
:101588001FD10123FB731CE0BB68022B03D9BB6886
:10159800032B03D018E00123FB7315E07B68DB6A9B
:1015A80003F08073002B0ED00123FB730BE000BF08
:1015B8000AE000BF08E000BF06E000BF04E000BF8B
:1015C80002E000BF00E000BFFB7B18461437BD46B1
:1015D8005DF8047B704700BF80B489B000AF7860C5
:1015E800396000237B6100233B610023BB6100233A
:1015F800FB616BE10122FB6902FA03F37B613B6843
:101608001B687A6913403B613A697B699A4240F0EA
:101618005A813B685B6803F00303012B05D03B68E4
:101628005B6803F00303022B30D17B689B68BB61C6
:10163800FB695B00032202FA03F3DB43BA69134038
:10164800BB613B68DA68FB695B0002FA03F3BA69BD
:101658001343BB617B68BA699A607B685B68BB614E
:101668000122FB6902FA03F3DB43BA691340BB6149
:101678003B685B681B0903F00102FB6902FA03F38C
:10168800BA691343BB617B68BA695A603B685B6897
:1016980003F00303032B17D07B68DB68BB61FB698E
:1016A8005B00032202FA03F3DB43BA691340BB6110
:1016B8003B689A68FB695B0002FA03F3BA69134353
:1016C800BB617B68BA69DA603B685B6803F0030357
:1016D800022B23D1FB69DA087B68083253F82230E1
:1016E800BB61FB6903F007039B000F2202FA03F3B7
:1016F800DB43BA691340BB613B681A69FB6903F0B5
:1017080007039B0002FA03F3BA691343BB61FB6941
:10171800DA087B680832B96943F822107B681B68CD
:10172800BB61FB695B00032202FA03F3DB43BA697E
:101738001340BB613B685B6803F00302FB695B0015
:1017480002FA03F3BA691343BB617B68BA691A608A
:101758003B685B6803F44033002B00F0B48000233F
:10176800FB60604B5B6C5F4A43F4804353645D4BA2
:101778005B6C03F48043FB60FB685B4AFB699B0876
:10178800023352F82330BB61FB6903F003039B006B
:101798000F2202FA03F3DB43BA691340BB617B688B
:1017A800524A93422BD07B68514A934225D07B689A
:1017B800504A93421FD07B684F4A934219D07B68A6
:1017C8004E4A934213D07B684D4A93420DD07B68B2
:1017D8004C4A934207D07B684B4A934201D1072376
:1017E8000EE008230CE006230AE0052308E00423A2
:1017F80006E0032304E0022302E0012300E00023C3
:10180800FA6902F0030292009340BA691343BB617C
:101818003549FB699B080233BA6941F823203B4BE1
:101828009B68BB613B69DB43BA691340BB613B689A
:101838005B6803F48013002B03D0BA693B69134338
:10184800BB61324ABB699360304BDB68BB613B6963
:10185800DB43BA691340BB613B685B6803F4001360
:10186800002B03D0BA693B691343BB61274ABB69A4
:10187800D360264B5B68BB613B69DB43BA691340A5
:10188800BB613B685B6803F40033002B03D0BA6983
:101898003B691343BB611D4ABB6953601B4B1B6803
:1018A800BB613B69DB43BA691340BB613B685B685A
:1018B80003F48033002B03D0BA693B691343BB613F
:1018C800124ABB691360FB690133FB61FB690F2B8B
:1018D8007FF690AE00BF00BF2437BD465DF8047B9D
:1018E800704700BF00380240003801400000024045
:1018F8000004024000080240000C024000100240B0
:101908000014024000180240001C0240003C014044
:1019180080B483B000AF78600B467B8013467B7041
:101928007B78002B03D07A887B689A6103E07B88F8
:101938001A047B689A6100BF0C37BD465DF8047BCA
:10194800704780B485B000AF78600B467B807B68B9
:101958005B69FB607A88FB6813401A04FB68D9430B
:101968007B880B401A437B689A6100BF1437BD46D9
:101978005DF8047B7047000080B586B000AF7860E2
:101988007B68002B01D1012367E27B681B6803F0A9
:101998000103002B75D0884B9B6803F00C03042BC4
:1019A8000CD0854B9B6803F00C03082B12D1824B9B
:1019B8005B6803F48003B3F5800F0BD17E4B1B6883
:1019C80003F40033002B5BD07B685B68002B57D196
:1019D800012342E27B685B68B3F5803F06D1764B12
:1019E8001B68754A43F4803313601DE07B685B68AD
:1019F800B3F5A02F0CD1704B1B686F4A43F48023BA
:101A080013606D4B1B686C4A43F4803313600BE022
:101A1800694B1B68684A23F480331360664B1B6864
:101A2800654A23F4802313607B685B68002B13D01E
:101A3800FFF7F2F8386108E0FFF7EEF802463B6975
:101A4800D31A642B01D9032307E25B4B1B6803F409
:101A58000033002BF0D014E0FFF7DEF8386108E01F
:101A6800FFF7DAF802463B69D31A642B01D903233E
:101A7800F3E1514B1B6803F40033002BF0D100E075
:101A880000BF7B681B6803F00203002B63D04A4B3E
:101A98009B6803F00C03002B0BD0474B9B6803F0AB
:101AA8000C03082B1CD1444B5B6803F48003002B08
:101AB80016D1414B1B6803F00203002B05D07B684D
:101AC800DB68012B01D00123C7E13B4B1B6823F0E6
:101AD800F8027B681B69DB00374913430B603AE067
:101AE8007B68DB68002B20D0344B01221A60FFF79B
:101AF80093F8386108E0FFF78FF802463B69D31A7C
:101B0800022B01D90323A8E12B4B1B6803F0020326
:101B1800002BF0D0284B1B6823F0F8027B681B6968
:101B2800DB00254913430B6015E0244B00221A60A3
:101B3800FFF772F8386108E0FFF76EF802463B6974
:101B4800D31A022B01D9032387E11B4B1B6803F02F
:101B58000203002BF0D17B681B6803F00803002BFD
:101B680036D07B685B69002B16D0154B01221A60B2
:101B7800FFF752F8386108E0FFF74EF802463B6974
:101B8800D31A022B01D9032367E10B4B5B6F03F0D8
:101B98000203002BF0D01BE0094B00221A60FFF76C
:101BA8003BF838610EE0FFF737F802463B69D31A75
:101BB800022B07D9032350E10038024000004742B6
:101BC800800E4742884B5B6F03F00203002BEAD17B
:101BD8007B681B6803F00403002B00F09780002348
:101BE800FB75814B1B6C03F08053002B0FD1002336
:101BF800BB607D4B1B6C7C4A43F0805313647A4B6B
:101C08001B6C03F08053BB60BB680123FB75774BEB
:101C18001B6803F48073002B18D1744B1B68734A3C
:101C280043F480731360FEF7F7FF386108E0FEF7AE
:101C3800F3FF02463B69D31A022B01D903230CE1B7
:101C48006A4B1B6803F48073002BF0D07B689B6899
:101C5800012B06D1644B1B6F634A43F001031367E2
:101C68001CE07B689B68052B0CD15F4B1B6F5E4AA1
:101C780043F0040313675C4B1B6F5B4A43F001039B
:101C880013670BE0584B1B6F574A23F00103136788
:101C9800554B1B6F544A23F0040313677B689B68FA
:101CA800002B15D0FEF7B8FF38610AE0FEF7B4FF45
:101CB80002463B69D31A41F28832934201D9032381
:101CC800CBE0494B1B6F03F00203002BEED014E06E
:101CD800FEF7A2FF38610AE0FEF79EFF02463B6965
:101CE800D31A41F28832934201D90323B5E03E4B1F
:101CF8001B6F03F00203002BEED1FB7D012B05D1F6
:101D0800394B1B6C384A23F0805313647B689B69FA
:101D1800002B00F0A180344B9B6803F00C03082BC8
:101D28005CD07B689B69022B41D1314B00221A6041
:101D3800FEF772FF386108E0FEF76EFF02463B6966
:101D4800D31A022B01D9032387E0274B1B6803F022
:101D58000073002BF0D17B68DA697B681B6A1A4331
:101D68007B685B6A9B011A437B689B6A5B08013B43
:101D78001B041A437B68DB6A1B061B4913434B6031
:101D88001B4B01221A60FEF747FF386108E0FEF797
:101D980043FF02463B69D31A022B01D903235CE0B7
:101DA800114B1B6803F00073002BF0D054E0104B6C
:101DB80000221A60FEF730FF386108E0FEF72CFFBA
:101DC80002463B69D31A022B01D9032345E0064B8F
:101DD8001B6803F00073002BF0D13DE07B689B6922
:101DE800012B07D1012338E0003802400070004081
:101DF800600047421B4B5B68FB607B689B69012B5B
:101E080028D0FB6803F480027B68DB699A4221D101
:101E1800FB6803F03F027B681B6A9A421AD1FA6892
:101E280047F6C07313407A68526A9201934211D1FF
:101E3800FB6803F440327B689B6A5B08013B1B0428
:101E48009A4207D1FB6803F070627B68DB6A1B0665
:101E58009A4201D0012300E0002318461837BD46F6
:101E680080BD00BF0038024080B584B000AF786004
:101E780039607B68002B01D10123CCE0684B1B68DB
:101E880003F007033A689A420CD9654B3A68D2B214
:101E98001A70634B1B6803F007033A689A4201D033
:101EA8000123B8E07B681B6803F00203002B20D0F5
:101EB8007B681B6803F00403002B05D0594B9B6813
:101EC800584A43F4E05393607B681B6803F00803A7
:101ED800002B05D0534B9B68524A43F460439360F0
:101EE800504B9B6823F0F0027B689B684D49134375
:101EF8008B607B681B6803F00103002B44D07B6870
:101F08005B68012B07D1474B1B6803F40033002B98
:101F180019D101237FE07B685B68022B03D07B68C3
:101F28005B68032B07D13F4B1B6803F00073002B42
:101F380009D101236FE03B4B1B6803F00203002B20
:101F480001D1012367E0374B9B6823F003027B68CC
:101F58005B68344913438B60FEF75EFEF8600AE065
:101F6800FEF75AFE0246FB68D31A41F288329342C2
:101F780001D903234FE02B4B9B6803F00C027B68CD
:101F88005B689B009A42EBD1254B1B6803F0070363
:101F98003A689A420CD2224B3A68D2B21A70204B55
:101FA8001B6803F007033A689A4201D0012332E024
:101FB8007B681B6803F00403002B08D0194B9B684F
:101FC80023F4E0527B68DB68164913438B607B6817
:101FD8001B6803F00803002B09D0124B9B6823F4FD
:101FE80060427B681B69DB000E4913438B6000F07D
:101FF80021F802460B4B9B681B0903F00F030A49A3
:10200800CB5C22FA03F3094A1360094B1B68184694
:10201800FEF7BEFD002318461037BD4680BD00BF41
:10202800003C024000380240BC510008000000207B
:10203800040000202DE9B04F90B000AF00237B636F
:102048000023FB6300233B630023BB63594B9B685E
:1020580003F00C03082B0DD0082B00F2A180002BF5
:1020680002D0042B03D09BE0534BBB639BE0534B44
:10207800BB6398E04F4B5B6803F03F037B634D4BBA
:102088005B6803F48003002B28D04A4B5B689B09EC
:1020980000223B627A623B6AC3F308000021474B87
:1020A80003FB01F2002300FB03F31344434AA0FBA4
:1020B8000212FA620A46BA62FA6A1344FB627B6B3E
:1020C8000022BB61FA61D7E90623D7E90A01FEF7C6
:1020D80077F802460B461346FB6353E0354B5B68C3
:1020E8009B0900223B617A613B69C3F3080A4FF000
:1020F800000B52465B464FF000004FF000015901BB
:1021080041EAD261500102460B46B2EB0A0863EB82
:102118000B094FF000024FF000034FEA891343EA1E
:1021280098634FEA8812B2EB080463EB09054FF095
:1021380000024FF00003EB0043EA5473E200144638
:102148001D4614EB0A033B6045EB0B037B604FF025
:1021580000024FF00003D7E9004529468B022146CB
:1021680043EA915321468A02104619467B6B0022A6
:10217800BB60FA60D7E90223FEF722F802460B4655
:102188001346FB630B4B5B681B0C03F00303013323
:102198005B003B63FA6B3B6BB2FBF3F3BB6302E0A0
:1021A800054BBB6300BFBB6B18464037BD46BDE857
:1021B800B08F00BF003802400024F40040787D0151
:1021C80080B582B000AF78607B68002B01D1012315
:1021D80022E07B6893F83430DBB2002B05D17B68B2
:1021E80000221A777868FEF737FB7B68032283F8AA
:1021F8003420786800F014F80346002B01D001233E
:102208000AE07B6800229A637B6800221A637B6875
:10221800012283F83420002318460837BD4680BDC4
:10222800B0B58EB004AF78600023FB6000233B613B
:1022380000237B610023BB610023FB6176233B62A3
:102248007B681D686C4607F1180393E8070084E86B
:10225800070007F10C030ECB284601F0E3FA2A4BDE
:1022680000221A607B681B68184601F024FB264B85
:1022780001221A600220FEF7DBFC786801F006F8FC
:1022880078627B6A002B0BD07B68012283F83420AC
:102298007B689A6B7B6A1A437B689A6301232EE0FA
:1022A800786800F025FF78627B6A002B0BD07B688A
:1022B800012283F834207B689A6B7B6A1A437B6817
:1022C8009A6301231BE07B681B684FF40071184672
:1022D80001F083FB78627B6A002B0FD07B681B6858
:1022E8000A4A9A637B689A6B7B6A1A437B689A638B
:1022F8007B68012283F83420012300E0002318467C
:102308002837BD46B0BD00BFA0802542FF0540006C
:1023180080B58CB000AFF860B9607A603B607B68CC
:10232800BB62BB68002B07D1FB689B6B43F0006264
:10233800FB689A630123C0E0FB6893F83430DBB292
:10234800012B40F0B980FB6800229A63BA6A3B68A7
:102358001A44FB68DB6D9A4207D9FB689B6B43F014
:102368000072FB689A630123A7E0FB68032283F8E5
:102378003420FB681B680022DA62FB681B68DB6B91
:10238800FA68126843F44A7343F00203D363FB68A4
:102398001B6C4C4ADA63FB681B6C4B4ADA64FB68BB
:1023A8001B6C00221A65FB681B6C00229A60FB6894
:1023B8001B6C1B681B6823F0C001FB681B6C9A68C8
:1023C800FB681B6C1B680A431A60FB68186CFB6887
:1023D8001B6880331946BA683B685B029B08FEF7A6
:1023E8000BFE0346002B17D0FB681B68DA6BFB68F3
:1023F8001B6822F49572DA63FB681B68334A9A6398
:10240800FB689B6B43F08042FB689A63FB68012280
:1024180083F83420012350E02D4B01221A60FB6819
:102428005B6C012B02D0BB6A5B02BB624FF0FF33CF
:102438003B613B685B027B619023BB610223FB61CC
:1024480000233B6201237B62FB681B6807F11002D3
:102458001146184601F095FA3B68012B0AD9FB682A
:1024680082221A63FB681B68B96A184601F0F9FAF8
:10247800F86209E0FB6881221A63FB681B68B96A85
:10248800184601F0CCFAF862FB6A002B12D0FB6800
:102498001B680E4A9A63FB689A6BFB6A1A43FB68CF
:1024A8009A63FB68012283F83420FB6800221A63D0
:1024B800012302E0002300E0022318463037BD461E
:1024C80080BD00BF072F0008792F0008FF054000D6
:1024D8008C85254280B58CB000AFF860B9607A6011
:1024E8003B607B68BB62BB68002B07D1FB689B6BBA
:1024F80043F00062FB689A630123C5E0FB6893F828
:102508003430DBB2012B40F0BE80FB6800229A63B6
:10251800BA6A3B681A44FB68DB6D9A4207D9FB68C4
:102528009B6B43F00072FB689A630123ACE0FB6885
:10253800032283F83420FB681B680022DA62FB68F8
:102548001B68DB6BFA68126843F4067343F00203F6
:10255800D363FB68DB6B4E4ADA63FB68DB6B4D4A7F
:10256800DA64FB68DB6B00221A65FB685B6C012B85
:1025780002D0BB6A5B02BB623B68012B0AD9FB68CD
:10258800A0221A63FB681B68B96A184601F0ADFA05
:10259800F86209E0FB6890221A63FB681B68B96A55
:1025A800184601F080FAF862FB6A002B12D0FB682B
:1025B8001B68394A9A63FB689A6BFB6A1A43FB6883
:1025C8009A63FB68012283F83420FB6800221A63AF
:1025D800012359E0314B01221A60FB68DB6B402272
:1025E8009A60FB68DB6B1B681B6823F0C001FB6803
:1025F800DB6B9A68FB68DB6B1B680A431A60FB6835
:10260800D86BB968FB681B6880331A463B685B0265
:102618009B08FEF7F1FC0346002B1CD0FB681B68E7
:10262800DB6BFA68126823F4067323F00203D363A2
:10263800FB681B68184A9A63FB689B6B43F08042EF
:10264800FB689A63FB68012283F83420FB68002248
:102658001A63012318E04FF0FF333B613B685B02CC
:102668007B619023BB610023FB6100233B62012354
:102678007B62FB681B6807F110021146184601F0DF
:1026880080F9002300E0022318463037BD4680BD9C
:10269800DD2E0008792F0008FF0540008C852542B3
:1026A80080B584B000AF78607B681B6BFB607B688B
:1026B8001B685B6B03F40043002B08D0FB6803F036
:1026C8000803002B03D0786801F006F865E17B6801
:1026D8001B685B6B03F48073002B00F08F807B68B2
:1026E8001B684FF480729A637B681B68DB6B7A689F
:1026F800126823F4434323F03A03D3637B681B68CF
:10270800DA6A7B681B6822F00102DA62FB6803F070
:102718000803002B39D0FB6803F00203002B04D117
:10272800FB6803F02003002B11D07B681B68184658
:1027380001F0FEF9B860BB68002B08D07B689A6B83
:10274800BB681A437B689A63786800F02FF97B6846
:102758001B6840F23A529A637B68012283F834205E
:102768007B6800221A63FB6803F00103002B04D185
:10277800FB6803F00203002B03D0786801F064FEC5
:102788000BE1786801F056FE07E1FB6803F080036F
:10279800002B00F00281FB6803F02003002B11D00E
:1027A8007B681B68184601F0C3F9B860BB68002B4A
:1027B80008D07B689A6BBB681A437B689A63786811
:1027C80000F0F4F8FB6803F00103002B40F0E5800B
:1027D800FB6803F00203002B40F0DF807B681B6876
:1027E800DA6A7B681B6822F00802DA627B680122D9
:1027F80083F83420786801F01DFECEE07B681B6802
:102808005B6B03F48043002B08D0FB6803F00803DC
:10281800002B03D0786800F0B0FFBEE07B681B682F
:102828005A6B40F23A231340002B00F0B6807B68C5
:102838001B685B6B03F00203002B05D07B689B6B66
:1028480043F002027B689A637B681B685B6B03F04A
:102858000803002B05D07B689B6B43F008027B685C
:102868009A637B681B685B6B03F02003002B05D021
:102878007B689B6B43F020027B689A637B681B68CC
:102888005B6B03F01003002B05D07B689B6B43F058
:1028980010027B689A637B681B685B6B03F40073A8
:1028A800002B05D07B689B6B43F008027B689A631A
:1028B8007B681B6840F23A729A637B681B68DB6B23
:1028C8007A68126823F44E7323F00203D3637B689B
:1028D8001B68184601F02CF902467B689B6B1A436B
:1028E8007B689A63FB6803F00803002B0AD07B68B7
:1028F800012283F834207B6800221A63786800F08C
:1029080055F84AE0FB6803F08003002B45D0FB68CC
:1029180003F01003002B04D1FB6803F02003002B05
:1029280011D07B68DB6B1F4A1A657B68DB6B184626
:10293800FEF7BAFB0346002B2FD07B68DB6B1846EB
:1029480000F068FB29E0FB6803F00103002B04D1C9
:10295800FB6803F00203002B11D07B681B6C124A42
:102968001A657B681B6C1846FEF79EFB0346002B16
:1029780013D07B681B6C184600F083FB0DE07B6866
:1029880000229A637B68012283F834207B68002246
:102998001A63786801F044FDFFE700BF1037BD46B1
:1029A80080BD00BF1D3000088B30000880B483B0A4
:1029B80000AF786000BF0C37BD465DF8047B7047F8
:1029C80080B483B000AF786039607B685B6E9B0F22
:1029D800DAB23B681A707B685B6E9B0EDBB203F061
:1029E8000F03DAB23B685A707B685B6E1B0EDBB272
:1029F80003F00303DAB23B689A707B685B6E1B0CCA
:102A0800DAB23B68DA707B685B6E1B0ADAB23B6845
:102A18001A717B685B6EDAB23B685A717B689B6E91
:102A28001B0D9AB23B68DA807B689B6E1B0CDBB28D
:102A380003F00F03DAB23B681A727B689B6EDB0BFC
:102A4800DBB203F00103DAB23B685A727B689B6E13
:102A58009B0BDBB203F00103DAB23B689A727B6826
:102A68009B6E5B0BDBB203F00103DAB23B68DA72F0
:102A78007B689B6E1B0BDBB203F00103DAB23B6889
:102A88001A733B6800225A737B685B6C002B63D116
:102A98007B689B6E9A0040F6FC7313407A68D26E8E
:102AA800920F1A433B681A617B68DB6EDB0EDBB260
:102AB80003F00703DAB23B681A757B68DB6E1B0EFE
:102AC800DBB203F00703DAB23B685A757B68DB6E4A
:102AD8005B0DDBB203F00703DAB23B689A757B68DB
:102AE800DB6E9B0CDBB203F00703DAB23B68DA75E6
:102AF8007B68DB6EDB0BDBB203F00703DAB23B6803
:102B08001A763B681B695A1C7B685A653B681B7EB2
:102B1800DBB203F007030233012202FA03F37A68F7
:102B2800526D03FB02F27B685A653B681B7ADBB285
:102B380003F00F0301229A407B689A657B685B6DFE
:102B48007A68926D520A03FB02F27B68DA657B6849
:102B58004FF400721A6631E07B685B6C012B1DD163
:102B68007B689B6E1B0403F47C127B68DB6E1B0C7A
:102B78001A433B681A613B681B6901339A027B68F8
:102B88005A657B685A6D7B68DA657B684FF400721A
:102B98009A657B689A6D7B681A660FE07B681B688C
:102BA800584A9A637B689B6B43F080527B689A63B0
:102BB8007B68012283F8342001239DE07B68DB6E6B
:102BC8009B0BDBB203F00103DAB23B685A767B68F1
:102BD800DB6EDB09DBB203F07F03DAB23B689A767F
:102BE8007B68DB6EDBB203F07F03DAB23B68DA7630
:102BF8007B681B6FDB0FDAB23B681A777B681B6F49
:102C08005B0FDBB203F00303DAB23B685A777B68E9
:102C18001B6F9B0EDBB203F00703DAB23B689A77AF
:102C28007B681B6F9B0DDBB203F00F03DAB23B68C6
:102C3800DA777B681B6F5B0DDBB203F00103DAB256
:102C48003B6883F820203B68002283F821207B68BA
:102C58001B6F1B0CDBB203F00103DAB23B6883F88D
:102C680022207B681B6FDB0BDBB203F00103DAB2B7
:102C78003B6883F823207B681B6F9B0BDBB203F058
:102C88000103DAB23B6883F824207B681B6F5B0B77
:102C9800DBB203F00103DAB23B6883F825207B68D6
:102CA8001B6F1B0BDBB203F00103DAB23B6883F83E
:102CB80026207B681B6F9B0ADBB203F00303DAB2A2
:102CC8003B6883F827207B681B6F1B0ADBB203F085
:102CD8000303DAB23B6883F828207B681B6F5B0824
:102CE800DBB203F07F03DAB23B6883F829203B6844
:102CF800012283F82A20002318460C37BD465DF8C8
:102D0800047B7047FF05400080B483B000AF786053
:102D180039607B685A6C3B681A607B689A6C3B68C0
:102D28005A607B68DA6C3B689A607B681A6D3B680E
:102D3800DA607B685A6D3B681A617B689A6D3B68FC
:102D48005A617B68DA6D3B689A617B681A6E3B68EA
:102D5800DA61002318460C37BD465DF8047B7047DE
:102D6800B0B58EB004AF78603960002387F827309B
:102D78007B68032283F834207B685B6C032B2ED09E
:102D88003B68B3F5805F06D17B689B6B43F080524C
:102D98007B689A6329E03B68B3F5006F0AD17868CD
:102DA80000F02AFB38627B689A6B3B6A1A437B689F
:102DB8009A631AE03B68002B0AD1786800F067FB39
:102DC80038627B689A6B3B6A1A437B689A630CE0AB
:102DD8007B689B6B43F000627B689A6305E07B68C5
:102DE8009B6B43F080527B689A637B689B6B002BDC
:102DF8000BD07B681B68264A9A637B68012283F89C
:102E08003420012387F827301FE07B685B68BB60AC
:102E18007B689B68FB607B68DB683B613B687B6128
:102E28007B685B69BB617B689B69FB617B681D682C
:102E38006C4607F1140393E8070084E8070007F1DC
:102E480008030ECB284600F0EDFC7B681B684FF4A6
:102E58000071184600F0C1FD38623B6A002B0CD0A7
:102E68007B681B680A4A9A637B689A6B3B6A1A43B9
:102E78007B689A63012387F827307B68012283F8EF
:102E8800342097F8273018462837BD46B0BD00BF14
:102E9800FF05400080B586B000AF78600023FB6076
:102EA80007F10C031946786800F07EFA78617B69AF
:102EB800002B05D07B689A6B7B691A437B689A6301
:102EC800FB685B0A03F00F033B613B691846183740
:102ED800BD4680BD80B485B000AF78607B689B6BD1
:102EE800FB60FB681B68DA6BFB681B6842F4807246
:102EF800DA6300BF1437BD465DF8047B704780B5C0
:102F080084B000AF78607B689B6BFB60FB681B6BD1
:102F1800822B11D1FB681B68184600F009FEB860C7
:102F2800BB68002B08D0FB689A6BBB681A43FB6828
:102F38009A63F868FFF73AFDFB681B68DA6AFB6872
:102F48001B6822F00802DA62FB681B6840F23A52FA
:102F58009A63FB68012283F83420FB6800221A6315
:102F6800F86801F071FA00BF1037BD4680BD000057
:102F780080B586B000AF78607B689B6B7B617868B2
:102F8800FEF73EFA0346022B3ED07B691B6C5B6D55
:102F98003B617B69DB6B5B6DFB603B69012B02D09E
:102FA800FB68012B2DD17B691B68194A9A637B69E1
:102FB8001B68DA6B7B691B6822F49D72DA637B6994
:102FC8009B6B43F080427B699A637869FFF762FFE5
:102FD800B860BB68062B02D0BB68052B0AD17B6999
:102FE8001B68184600F0A4FD02467B699B6B1A43D8
:102FF8007B699A637B69012283F834207B6900220C
:103008001A637869FFF7D2FC00BF1837BD4680BD48
:10301800FF05400080B584B000AF78607B689B6B8B
:10302800FB60FB681B6840F23A529A63F868FFF746
:1030380031FFB860FB68012283F83420FB68002266
:103048001A63BB68062B02D0BB68052B0AD1FB6844
:103058001B68184600F06CFD0246FB689B6B1A4320
:10306800FB689A63FB689B6B002B03D1F86801F03F
:10307800D7F902E0F868FFF799FC00BF1037BD46A2
:1030880080BD80B584B000AF78607B689B6BFB60C7
:10309800FB681B6840F23A529A63F868FFF7FAFE39
:1030A800B860FB68012283F83420FB6800221A63A9
:1030B800BB68062B02D0BB68052B0AD1FB681B68CE
:1030C800184600F035FD0246FB689B6B1A43FB6807
:1030D8009A63FB689B6B002B03D1F86801F0A0F999
:1030E80002E0F868FFF762FC00BF1037BD4680BDFC
:1030F800B0B594B004AF78600123FB817B681B688E
:10310800184600F0E6FB0346002B02D14FF080631F
:10311800B8E07B685B6C032B2FD07B681B68184674
:1031280000F010FEF863FB6B002B01D0FB6BA9E0ED
:103138007B681B680021184600F010FC02467B687B
:103148005A677B681B680421184600F007FC024692
:103158007B689A677B681B680821184600F0FEFBAD
:1031680002467B68DA677B681B680C21184600F00A
:10317800F5FB02467B68C3F880207B685B6C032BF9
:103188000DD07B681B6807F10E021146184600F047
:1031980016FEF863FB6B002B01D0FB6B72E07B68BB
:1031A8005B6C032B36D0FB891A467B681A657B68F3
:1031B8001A687B681B6D1B041946104600F0E0FD79
:1031C800F863FB6B002B01D0FB6B5BE07B681B6833
:1031D8000021184600F0C2FB02467B685A667B68ED
:1031E8001B680421184600F0B9FB02467B689A6602
:1031F8007B681B680821184600F0B0FB02467B6814
:10320800DA667B681B680C21184600F0A7FB0246AB
:103218007B681A677B681B680421184600F09EFBD0
:1032280003461A0D7B68DA6407F1100319467868BB
:10323800FFF7C6FB0346002B02D04FF0805321E076
:103248007B6819687B681B6D1B0400221C461546A9
:1032580022462B46084600F08DFCF863FB6B002BDA
:1032680001D0FB6B0EE07B681D687B686C4603F140
:10327800100207CA84E8070004330ECB284600F082
:10328800D1FA002318464037BD46B0BD80B586B098
:1032980000AF78600023BB6000237B6100233B61A3
:1032A8007B681B68184600F088FCF860FB68002BF8
:1032B80001D0FB6872E07B681B68184600F09BFC35
:1032C800F860FB68002B0DD07B6800229A647B684D
:1032D8001B68184600F071FCF860FB68002B04D0EE
:1032E800FB685BE07B6801229A647B689B6C012B1E
:1032F80037D17B681B680021184600F09BFCF860FA
:10330800FB68002B2DD04FF0805347E07B681B688B
:103318000021184600F08EFCF860FB68002B01D0F5
:10332800FB683BE07B681B681E49184600F0A4FC5C
:10333800F860FB68002B02D04FF080532EE07B68CA
:103348001B680021184600F009FB78617B69DB0FD8
:10335800012B01D1012300E000233B61BB6801334D
:10336800BB60BB684FF6FE72934202D83B69002BE4
:10337800CCD0BB684FF6FE72934202D94FF08073EF
:103388000CE07B6903F08043002B03D07B680122AB
:103398005A6402E07B6800225A64002318461837F2
:1033A800BD4680BD000010C180B584B000AF786014
:1033B80039603B68002B02D14FF0006318E07B684E
:1033C8001A687B681B6D1B041946104600F018FD2F
:1033D800F860FB68002B01D0FB6809E07B681B687C
:1033E8000021184600F0BAFA02463B681A6000232A
:1033F80018461037BD4680BD80B586B000AF7860EE
:103408000023FB6000233B617B681B680021184692
:1034180000F0A4FA034603F00073B3F1007F02D171
:103428004FF400632FE007F10C031946786800F0A9
:1034380079F878617B69002B01D07B6923E03B69CF
:1034480003F48023002B1CD07B681A687B681B6DF3
:103458001B041946104600F0EDFB78617B69002BD0
:1034680001D07B690FE07B681B680221184600F0D9
:1034780026FC78617B69002B01D07B6903E000237F
:1034880001E04FF0806318461837BD4680BD80B50F
:1034980086B000AF78600023FB6000233B617B6847
:1034A8001B680021184600F059FA034603F0007320
:1034B800B3F1007F02D14FF400632FE007F10C0352
:1034C8001946786800F02EF878617B69002B01D0E6
:1034D8007B6923E03B6903F48033002B1CD07B68B5
:1034E8001A687B681B6D1B041946104600F0A2FB86
:1034F80078617B69002B01D07B690FE07B681B68D2
:103508000021184600F0DBFB78617B69002B01D0B5
:103518007B6903E0002301E04FF080631846183709
:10352800BD4680BD90B58FB000AF78603960FDF7BB
:1035380073FB386300237B630023BB600023FB60BD
:103548003B68FB627B681B680821184600F045FA57
:10355800B862BB6A002B01D0BB6AB9E07B681A6805
:103568007B681B6D1B041946104600F063FBB862AC
:10357800BB6A002B01D0BB6AAAE04FF0FF333B6166
:1035880008237B613023BB610223FB6100233B627C
:1035980001237B627B681B6807F1100211461846FD
:1035A80000F0EFF97B681B68184600F0AAFBB862C8
:1035B800BB6A002B2AD0BB6A8AE07B681B685B6BFE
:1035C80003F40013002B0FD07B6819687B6B9B00FA
:1035D80007F10802D418084600F04FF903462360A3
:1035E8007B6B01337B6306E07B681B685B6B03F4D2
:1035F8000053002B12D0FDF70FFB02463B6BD31A8A
:10360800B3F1FF3F02D14FF0004361E07B681B68D4
:103618005B6B03F02A03002BCFD000E000BF7B6870
:103628001B685B6B03F00803002B06D17B681B68E3
:103638005B6B03F40073002B05D07B681B680822C2
:103648009A63082344E07B681B685B6B03F0020302
:10365800002B05D07B681B6802229A63022337E09F
:103668007B681B685B6B03F02003002B05D07B682D
:103678001B6820229A6320232AE07B681B6840F29B
:103688003A529A63FB681A06FB681B0203F47F032D
:103698001A43FB681B0A03F47F431A43FB681B0E9B
:1036A8001A43FB6A1A60FB6A0433FB62BB681A069A
:1036B800BB681B0203F47F031A43BB681B0A03F4AD
:1036C8007F431A43BB681B0E1A43FB6A1A60002328
:1036D80018463C37BD4690BD80B586B000AF7860CF
:1036E8007B689B6AFB607B68DB6A3B613B69002BFC
:1036F8003FD000237B6133E07B681B68184600F0ED
:10370800BCF8B860BB68DAB2FB681A70FB680133B2
:10371800FB603B69013B3B61BB681B0ADAB2FB6893
:103728001A70FB680133FB603B69013B3B61BB6876
:103738001B0CDAB2FB681A70FB680133FB603B694B
:10374800013B3B61BB681B0EDAB2FB681A70FB6871
:103758000133FB603B69013B3B617B6901337B6162
:103768007B69072BC8D97B68FA689A627B683A69D3
:10377800DA6200BF1837BD4680BD80B586B000AF9D
:1037880078607B681B6AFB607B685B6A3B613B69AE
:10379800002B43D000237B6137E0FB681B78BB60BC
:1037A800FB680133FB603B69013B3B61FB681B78AD
:1037B8001A02BB681343BB60FB680133FB603B69BB
:1037C800013B3B61FB681B781A04BB681343BB6071
:1037D800FB680133FB603B69013B3B61FB681B787D
:1037E8001A06BB681343BB60FB680133FB603B6987
:1037F800013B3B617B681B6807F1080211461846CC
:1038080000F048F87B6901337B617B69072BC4D9D9
:103818007B68FA681A627B683A695A6200BF18378F
:10382800BD4680BD84B080B485B000AF786007F134
:103838001C0080E80E000023FB60FA693B6A1A430B
:103848007B6A1A43BB6A1A43FB6A1A433B6B1343EE
:10385800FA681343FB607B685B6823F4FD4323F03D
:103868007F03FA681A437B685A60002318461437A6
:10387800BD465DF8047B04B0704780B483B000AFE8
:1038880078607B68D3F8803018460C37BD465DF801
:10389800047B704780B483B000AF786039603B68C0
:1038A8001A687B68C3F88020002318460C37BD4689
:1038B8005DF8047B704780B483B000AF78607B68A4
:1038C80003221A60002318460C37BD465DF8047BB6
:1038D800704780B483B000AF78607B681B6803F0E2
:1038E800030318460C37BD465DF8047B704780B467
:1038F80085B000AF786039600023FB603B681A68C8
:103908007B689A603B685A683B689B681A433B68C7
:10391800DB681A433B681B691343FA681343FB606F
:103928007B68DB6823F47F6323F00F03FA681A438C
:103938007B68DA60002318461437BD465DF8047BBF
:10394800704780B483B000AF78607B681B69DBB2D6
:1039580018460C37BD465DF8047B704780B485B0C7
:1039680000AF786039607B6814331A463B681344AB
:10397800FB60FB681B6818461437BD465DF8047B7E
:10398800704780B485B000AF786039600023FB6071
:103998003B681A687B685A623B685A687B689A6217
:1039A8003B689A683B68DB681A433B681B691A43A3
:1039B8003B685B691343FA681343FB607B68DB6A07
:1039C80023F0F702FB681A437B68DA620023184683
:1039D8001437BD465DF8047B704780B588B000AFEA
:1039E800786039603B68BB601023FB6040233B6113
:1039F80000237B614FF48063BB6107F1080319461C
:103A08007868FFF774FF41F288321021786800F077
:103A180019FAF861FB6918462037BD4680BD80B5A4
:103A280088B000AF786039603B68BB601123FB60E9
:103A380040233B6100237B614FF48063BB6107F146
:103A4800080319467868FFF752FF41F288321121BE
:103A5800786800F0F7F9F861FB6918462037BD4629
:103A680080BD80B588B000AF786039603B68BB60C6
:103A78001223FB6040233B6100237B614FF480638A
:103A8800BB6107F1080319467868FFF730FF41F278
:103A980088321221786800F0D5F9F861FB69184678
:103AA8002037BD4680BD80B588B000AF78603960EA
:103AB8003B68BB601823FB6040233B6100237B61AC
:103AC8004FF48063BB6107F1080319467868FFF774
:103AD8000EFF41F288321821786800F0B3F9F861D6
:103AE800FB6918462037BD4680BD80B588B000AF59
:103AF800786039603B68BB601923FB6040233B61F9
:103B080000237B614FF48063BB6107F1080319460A
:103B18007868FFF7ECFE41F288321921786800F0E6
:103B280091F9F861FB6918462037BD4680BD000051
:103B380080B588B000AF78600023BB600C23FB60C1
:103B480040233B6100237B614FF48063BB6107F135
:103B5800080319467868FFF7CAFE054A0C217868F9
:103B680000F070F9F861FB6918462037BD4680BD42
:103B780000E1F50580B58AB000AFF860C7E9002319
:103B88003B683B6107237B614023BB610023FB61EA
:103B98004FF480633B6207F110031946F868FFF79A
:103BA800A6FE41F288320721F86800F04BF97862E6
:103BB8007B6A18462837BD4680BD80B588B000AFFF
:103BC80078600023BB600023FB6000233B61002377
:103BD8007B614FF48063BB6107F10803194678687D
:103BE800FFF785FE786800F065FBF861FB69184609
:103BF8002037BD4680BD80B588B000AF78604FF4EF
:103C0800D573BB600823FB6040233B6100237B61C5
:103C18004FF48063BB6107F1080319467868FFF722
:103C280066FE786800F0F8FAF861FB6918462037F4
:103C3800BD4680BD80B588B000AF786039603B680C
:103C4800BB603723FB6040233B6100237B614FF45B
:103C58008063BB6107F1080319467868FFF747FEE0
:103C680041F288323721786800F0ECF8F861FB6996
:103C780018462037BD4680BD80B588B000AF786053
:103C880039603B6843F0004343F48013BB60292349
:103C9800FB6040233B6100237B614FF48063BB6181
:103CA80007F1080319467868FFF721FE786800F0E5
:103CB800FFF9F861FB6918462037BD4680BD80B51D
:103CC80088B000AF786039603B68BB600623FB6052
:103CD80040233B6100237B614FF48063BB6107F1A4
:103CE800080319467868FFF702FE41F28832062178
:103CF800786800F0A7F8F861FB6918462037BD46D8
:103D080080BD80B588B000AF78600023BB603323E6
:103D1800FB6040233B6100237B614FF48063BB6100
:103D280007F1080319467868FFF7E1FD41F2883288
:103D38003321786800F086F8F861FB691846203767
:103D4800BD4680BD80B588B000AF78600023BB60F9
:103D58000223FB60C0233B6100237B614FF4806337
:103D6800BB6107F1080319467868FFF7C0FD78685A
:103D780000F056F9F861FB6918462037BD4680BD4A
:103D880080B588B000AF786039603B68BB600923B4
:103D9800FB60C0233B6100237B614FF48063BB6100
:103DA80007F1080319467868FFF7A1FD786800F065
:103DB80037F9F861FB6918462037BD4680BD80B5E4
:103DC80088B000AF786039600023BB600323FB60D4
:103DD80040233B6100237B614FF48063BB6107F1A3
:103DE800080319467868FFF782FD3A680321786866
:103DF80000F09CF9F861FB6918462037BD4680BD84
:103E080080B588B000AF786039603B68BB600D232F
:103E1800FB6040233B6100237B614FF48063BB61FF
:103E280007F1080319467868FFF761FD41F2883207
:103E38000D21786800F006F8F861FB69184620370C
:103E4800BD4680BD80B588B000AFF8600B467A608B
:103E5800FB72704B1B68704AA2FB03235A0A7B68EB
:103E680002FB03F3FB61FB695A1EFA61002B02D1C6
:103E78004FF00043C9E0FB685B6BBB61BB6903F0B3
:103E88004503002BEFD0BB6903F40063002BEAD194
:103E9800FB685B6B03F00403002B04D0FB6804226F
:103EA8009A630423B1E0FB685B6B03F00103002B0A
:103EB80004D0FB6801229A630123A6E0FB68C522AF
:103EC8009A63F868FFF73DFD03461A46FB7A93426A
:103ED80001D0012399E00021F868FFF73FFD7861E0
:103EE8007A694E4B1340002B01D100238DE07B698A
:103EF800002B02DA4FF0007387E07B6903F0804300
:103F0800002B01D0402380E07B6903F00053002B95
:103F180001D0802379E07B6903F08053002B02D025
:103F28004FF4807371E07B6903F00063002B02D0CB
:103F38004FF4007369E07B6903F08063002B02D0C3
:103F48004FF4806361E07B6903F08073002B02D03B
:103F58004FF4006359E07B6903F40003002B02D09F
:103F68004FF4805351E07B6903F48003002B02D0A7
:103F78004FF4005349E07B6903F40013002B02D08F
:103F88004FF4804341E07B6903F48013002B02D097
:103F98004FF4004339E07B6903F48023002B02D0FF
:103FA8004FF4003331E07B6903F40033002B02D077
:103FB8004FF4802329E07B6903F48033002B02D07F
:103FC8004FF4002321E07B6903F40043002B02D067
:103FD8004FF4801319E07B6903F48043002B02D06F
:103FE8004FF4001311E07B6903F40053002B02D057
:103FF8004FF4800309E07B6903F00803002B02D02B
:104008004FF4000301E04FF4803318462037BD46D3
:1040180080BD00BF00000020D34D621008E0FFFD06
:1040280080B485B000AF78601F4B1B681F4AA2FBA5
:1040380003235B0A41F2883202FB03F3FB60FB684F
:104048005A1EFA60002B02D14FF0004326E07B682D
:104058005B6BBB60BB6803F04503002BEFD0BB680C
:1040680003F40063002BEAD17B685B6B03F0040365
:10407800002B04D07B6804229A6304230EE07B683B
:104088005B6B03F00103002B04D07B6801229A6369
:10409800012303E07B68C5229A630023184614377E
:1040A800BD465DF8047B704700000020D34D6210C8
:1040B80080B485B000AF78601A4B1B681A4AA2FB1F
:1040C80003235B0A41F2883202FB03F3FB60FB68BF
:1040D8005A1EFA60002B02D14FF000431BE07B68A8
:1040E8005B6BBB60BB6803F04503002BEFD0BB687C
:1040F80003F40063002BEAD17B685B6B03F00403D5
:10410800002B04D07B6804229A63042303E07B68B5
:10411800C5229A63002318461437BD465DF8047B10
:10412800704700BF00000020D34D621080B588B0F2
:1041380000AFF8600B467A60FB72354B1B68354A56
:10414800A2FB03235B0A41F2883202FB03F3FB6103
:10415800FB695A1EFA61002B02D14FF0004352E06E
:10416800FB685B6BBB61BB6903F04503002BEFD0B9
:10417800BB6903F40063002BEAD1FB685B6B03F0B7
:104188000403002B04D0FB6804229A6304233AE05A
:10419800FB685B6B03F00103002B04D0FB68012272
:1041A8009A6301232FE0F868FFF7CBFB03461A4612
:1041B800FB7A934201D0012325E0FB68C5229A636C
:1041C8000021F868FFF7CAFB78617B6903F4604354
:1041D800002B06D17B691B0C9AB27B681A800023DE
:1041E80011E07B6903F48043002B02D04FF40053A5
:1041F80009E07B6903F40043002B02D04FF480539D
:1042080001E04FF4803318462037BD4680BD00BF1B
:1042180000000020D34D621080B485B000AF7860F4
:10422800224B1B68224AA2FB03235B0A41F2883215
:1042380002FB03F3FB60FB685A1EFA60002B02D1F5
:104248004FF000432CE07B685B6BBB60BB6803F0FE
:104258004503002BEFD0BB6803F40063002BEAD1C1
:104268007B685B6B03F00403002B04D07B6804229B
:104278009A63042314E07B685B6B03F00103002B53
:1042880004D07B6801229A63012309E07B685B6B99
:1042980003F04003002B02D07B6840229A6300237E
:1042A80018461437BD465DF8047B704700000020AF
:1042B800D34D621080B485B000AF7860114B1B6895
:1042C800114AA2FB03235B0A41F2883202FB03F383
:1042D800FB60FB685A1EFA60002B02D14FF00043C6
:1042E80009E07B685B6B03F08003002BF1D07B68EF
:1042F800C5229A63002318461437BD465DF8047B2F
:10430800704700BF00000020D34D621080B500AF99
:104318000449054800F004FF03461A46034B1A7087
:1043280000BF80BDA8030020D4510008A4030020CA
:1043380080B582B000AF0023FB7100F096F8034609
:10434800012B01D0012312E00B48FDF739FF03468A
:10435800FB71FB79002B09D14FF400610648FEF789
:10436800FFFC0346002B01D00123FB71FB791846A3
:104378000837BD4680BD00BF2800002080B586B044
:1043880000AFF860B9607A600023FB757B68BA6893
:10439800F9680648FDF7BCFF0346002B01D001234E
:1043A800FB75FB7D18461837BD4680BD28000020E8
:1043B80080B586B000AFF860B9607A600023FB75FD
:1043C8007B68BA68F9680648FEF784F80346002B4C
:1043D80001D00123FB75FB7D18461837BD4680BD0B
:1043E8002800002080B500AF0548FEF753FD0346BE
:1043F800042B14BF01230023DBB2184680BD00BF85
:104408002800002080B582B000AF78607968034842
:10441800FEF77AFC00BF0837BD4680BD28000020A3
:1044280080B582B000AF786000F018F800BF083798
:10443800BD4680BD80B582B000AF786000F08CF9D1
:1044480000BF0837BD4680BD80B582B000AF786038
:1044580000F08EF900BF0837BD4680BD80B400AFBC
:1044680000BFBD465DF8047B704780B483B000AFE1
:104478000123FB71FB79DBB218460C37BD465DF8AA
:10448800047B704780B584B000AF7860FCF7C4FB4C
:10449800F86006E0FFF7A6FF0346002B01D10023D2
:1044A80009E0FCF7B9FB0246FB68D31A7A689A421E
:1044B800F0D84FF0FF3318461037BD4680BD0000D6
:1044C80080B582B000AF0346FB710B4B01221A7016
:1044D800FFF788FF0346002B07D1074B1B78DBB299
:1044E80023F00103DAB2044B1A70034B1B78DBB2DA
:1044F80018460837BD4680BD0900002080B582B047
:1045080000AF0346FB71FFF713FF0346002B07D1EB
:10451800FB791846FFF7D4FF03461A46044B1A7076
:10452800034B1B78DBB218460837BD4680BD00BF79
:104538000900002080B582B000AF0346FB71FB790B
:104548001846FFF7BDFF034618460837BD4680BD2D
:1045580080B586B000AFB9607A603B600346FB73F4
:104568000123FB7547F23050FFF78CFF0346002B01
:1045780001DAFB7D3BE03A687968B868FFF7FEFE30
:104588000346002B32D11C4B00221A60FCF744FB77
:10459800386100BF184B1B68002B08D1FCF73CFBA7
:1045A80002463B69D31A47F22F529342F2D9124B73
:1045B8001B68002B02D10123FB7517E00E4B00226C
:1045C8001A60FCF729FB386107E0FFF70BFF034689
:1045D800002B02D10023FB7508E0FCF71DFB024607
:1045E8003B69D31A47F22F529342EED9FB7D184606
:1045F8001837BD4680BD00BFB003002080B586B027
:1046080000AFB9607A603B600346FB730123FB751A
:10461800244B00221A6047F23050FFF733FF03465D
:10462800002B01DAFB7D38E03A687968B868FFF753
:10463800BFFE0346002B2FD1FCF7EEFA386100BF0E
:10464800184B1B68002B08D1FCF7E6FA02463B69B9
:10465800D31A47F22F529342F2D9124B1B68002B00
:1046680002D10123FB7517E00E4B00221A60FCF7FC
:10467800D3FA386107E0FFF7B5FE0346002B02D1F5
:104688000023FB7508E0FCF7C7FA02463B69D31A1A
:1046980047F22F529342EED9FB7D18461837BD4694
:1046A80080BD00BFAC03002080B58CB000AF0346CE
:1046B8003A60FB710B46BB71012387F82F30254BFD
:1046C8001B78DBB203F00103002B01D003233CE08D
:1046D800BB79032B34D801A252F823F0F546000821
:1046E800FD460008154700082F470008002387F8F3
:1046F8002F3028E007F10C031846FFF783FE7A6A8B
:104708003B681A60002387F82F301CE007F10C0380
:104718001846FFF777FEBB6A9AB23B681A800023F7
:1047280087F82F300FE007F10C031846FFF76AFEF1
:10473800BB6A5A0A3B681A60002387F82F3002E0E8
:10474800042387F82F3097F82F3018463037BD46A6
:1047580080BD00BF0900002080B400AF034B0122D8
:104768001A6000BFBD465DF8047B7047AC030020AB
:1047780080B400AF034B01221A6000BFBD465DF84C
:10478800047B7047B003002080B584B000AF0346B7
:10479800FB71FB79084A9B0013445B685B68FA79F4
:1047A80005490A44127A104698470346FB730423C6
:1047B80018461037BD4680BDDC03002080B584B0A4
:1047C80000AF0346FB710023FB73FB790E4AD35CF1
:1047D800002B14D1FB790C4A9B0013445B681B68BF
:1047E800FA7909490A44127A104698470346FB7336
:1047F800FB7B002B03D1FB79034A0121D15404230D
:1048080018461037BD4680BDDC03002090B587B040
:1048180000AFB9607A603B600346FB73FB7B0A4AD2
:104828009B0013445B689C68FB7B074A1344187A17
:104838003B687A68B968A0470346FB75FB7D184654
:104848001C37BD4690BD00BFDC03002090B587B083
:1048580000AFB9607A603B600346FB73FB7B0A4A92
:104868009B0013445B68DC68FB7B074A1344187A97
:104878003B687A68B968A0470346FB75FB7D184614
:104888001C37BD4690BD00BFDC03002080B485B056
:1048980000AF78607B6801331B78FB81B7F90E3075
:1048A8001B021AB27B681B781BB213431BB2FB8135
:1048B800FB8918461437BD465DF8047B704780B401
:1048C80085B000AF78607B6803331B78FB60FB68BA
:1048D8001B027A68023212781343FB60FB681B02E2
:1048E8007A68013212781343FB60FB681B027A680E
:1048F80012781343FB60FB6818461437BD465DF811
:10490800047B704780B485B000AF78600023FB60FB
:1049180010E00D4AFB681B0113441B687A689A4231
:1049280005D1094AFB681B01134400221A60FB6881
:104938000133FB60FB68012BEBD900BF00BF1437C4
:10494800BD465DF8047B7047BC03002080B586B087
:1049580000AF78600023FB737B68DB78002B34D0D2
:104968007B68DB6A7B617B6858787B6803F1300180
:1049780001237A69FFF76AFF0346002B02D001235F
:10498800FB7322E07B680022DA707B681B6A7A6915
:10499800D21A7B689B699A4217D27B689B783B61E5
:1049A80010E07B689B697A6913447B617B6858785F
:1049B8007B6803F1300101237A69FFF747FF3B6900
:1049C800013B3B613B69012BEBD8FB7B1846183751
:1049D800BD4680BD80B584B000AF786039600023E3
:1049E800FB737B68DB6A3A689A421BD07868FFF7EA
:1049F800ADFF0346FB73FB7B002B13D17B68587814
:104A08007B6803F1300101233A68FFF7FFFE034694
:104A1800002B04D04FF0FF333B600123FB737B680E
:104A28003A68DA62FB7B18461037BD4680BD80B411
:104A380087B000AF78604FF0FF333B617B681B683D
:104A4800002B31D07B681B687B6102E07B690133F6
:104A58007B617B691B78202B03D97B691B783A2BF8
:104A6800F4D17B691B783A2B1CD17B681B68FB60EF
:104A7800FB685A1CFA601B78303BBB60BB68092B8B
:104A88000ED8FA687B699A420AD1BB68002B07D115
:104A9800BB683B617B6901337B617B687A691A601B
:104AA8003B6902E000233B613B6918461C37BD4661
:104AB8005DF8047B7047000080B582B000AF786075
:104AC80039607B680022DA707B684FF0FF32DA6267
:104AD80039687868FFF77EFF0346002B01D004236E
:104AE80038E07B68303303F5FF731846FFF7CEFED6
:104AF80003461A464AF655239A4201D0032329E071
:104B08007B6893F83030E92B09D07B6893F8303014
:104B1800EB2B1ED17B6893F83230902B19D17B6830
:104B2800303336331846FFF7CAFE034623F07F4377
:104B38000A4A934201D100230CE07B683033523398
:104B48001846FFF7BCFE0346054A934201D10023ED
:104B580000E0022318460837BD4680BD4641540090
:104B68004641543380B596B000AFF860B96013463B
:104B7800FB71BB6800221A60F868FFF758FFF863FA
:104B8800FB6B002B01DA0B232DE2A14AFB6B52F8D9
:104B98002330BB63BB6B002B01D10C2323E2BB6822
:104BA800BA6B1A60FB7923F00103FB71BB6B1B78AE
:104BB800002B1AD0BB6B5B781846FFF7E5FD034660
:104BC80087F8373097F8373003F00103002B0CD102
:104BD800FB79002B07D097F8373003F00403002B3C
:104BE80001D00A23FFE10023FDE1BB6B00221A700C
:104BF800FB6BDAB2BB6B5A70BB6B5B781846FFF77E
:104C0800DDFD034687F8373097F8373003F00103A6
:104C1800002B01D00323E6E1FB79002B07D097F89E
:104C2800373003F00403002B01D00A23DBE1002313
:104C38003B65396DB86BFFF73FFF034687F8573080
:104C480097F85730022B49D100233B641EE0BB6B19
:104C580003F130023B6C1B0103F5DF7313443B6324
:104C68003B6B04331B78002B06D03B6B083318468C
:104C7800FFF725FE024600E000223B6C9B005833FC
:104C88003B4443F8442C3B6C01333B643B6C032BA3
:104C9800DDD900233B643B6C002B02D03B6C013B0D
:104CA8003B643B6C9B0058333B4453F8443C3B65A6
:104CB8003B6D002B05D0396DB86BFFF7FDFE034641
:104CC80000E0032387F8573097F85730012B05D9B0
:104CD8003B6C01333B643B6C032BE2D997F85730AC
:104CE800042B01D101237EE197F85730012B01D91C
:104CF8000D2378E1BB6B30330B331846FFF7C6FD45
:104D08000346B3F5007F01D00D236CE1BB6B303354
:104D180016331846FFF7BAFD0346FB64FB6C002BFD
:104D280006D1BB6B303324331846FFF7C8FDF8644F
:104D3800BB6BFA6C9A61BB6B93F84020BB6B9A70A3
:104D4800BB6B9B78012B05D0BB6B9B78022B01D0EA
:104D58000D2348E1BB6B9B781A46FB6C02FB03F3FF
:104D6800FB64BB6B93F83D301A46BB6B5A81BB6B37
:104D78005B89002B08D0BB6B5B891A46BB6B5B89D0
:104D8800013B1340002B01D00D232CE1BB6B3033CA
:104D980011331846FFF77AFD03461A46BB6B1A8192
:104DA800BB6B1B8903F00F039BB2002B01D00D23B3
:104DB80019E1BB6B303313331846FFF767FD034621
:104DC800BB64BB6C002B06D1BB6B30332033184659
:104DD800FFF775FDB864BB6B30330E331846FFF729
:104DE80055FD0346FB85FB8D002B01D10D23FAE011
:104DF800FA8DFB6C1344BA6B1289120992B21344F0
:104E0800BB62BA6CBB6A9A4204D20D23EBE000BFC6
:104E1800B4030020BA6CBB6AD31ABA6B5289B3FBCD
:104E2800F2F37B627B6A002B01D10D23DBE00323C5
:104E380087F857307B6A4FF6F572934202D80223FF
:104E480087F857307B6A40F6F572934202D80123FF
:104E580087F857307B6A9A1CBB6B5A61BB6B3A6DFB
:104E6800DA61FA8D3B6D1A44BB6B1A623A6DBB6A04
:104E78001A44BB6B9A6297F85730032B1ED1BB6B51
:104E880030332A331846FFF701FD0346002B01D0C3
:104E98000D23A8E0BB6B1B89002B01D00D23A2E0DA
:104EA800BB6B30332C331846FFF709FD0246BB6B4A
:104EB8005A62BB6B5B699B007B641FE0BB6B1B8901
:104EC800002B01D10D238EE0BB6B1A6AFB6C1A44D0
:104ED800BB6B5A6297F85730022B03D1BB6B5B69E7
:104EE8005B000AE0BB6B5A6913465B0013445A081F
:104EF800BB6B5B6903F0010313447B64BB6B9A696A
:104F08007B6C03F2FF135B0A9A4201D20D236AE01D
:104F1800BB6B4FF0FF321A61BB6B1A69BB6BDA606F
:104F2800BB6B80221A7197F85730032B49D1BB6BA2
:104F3800303330331846FFF7A9FC0346012B40D124
:104F48003B6D01331946B86BFFF744FD0346002B50
:104F580037D1BB6B00221A71BB6B303303F5FF737B
:104F68001846FFF793FC03461A464AF655239A4219
:104F780027D1BB6B30331846FFF7A1FC03461C4A08
:104F880093421ED1BB6B303303F5F2731846FFF71B
:104F980096FC0346174A934213D1BB6B303303F593
:104FA800F4731846FFF78BFC0246BB6B1A61BB6BA8
:104FB800303303F5F6731846FFF781FC0246BB6BE6
:104FC800DA60BB6B97F857201A700B4B1B880133BC
:104FD8009AB2094B1A80084B1A88BB6BDA80B86BF7
:104FE800FFF790FC002318465837BD4680BD00BF28
:104FF8005252614172724161B803002080B588B095
:1050080000AFF860B9601346FB71BB683B6107F1FC
:1050180010031846FFF70BFDF861FB69002B01DA56
:105028000B232BE0174AFB6952F82330BB61BB699D
:10503800002B05D0B869FFF765FCBB6900221A7020
:10504800FB68002B02D0FB6800221A70FA680D4931
:10505800FB6941F82320FB68002B02D0FB79012B68
:1050680001D000230AE007F10C0107F10803002230
:105078001846FFF777FD0346FB75FB7D184620377A
:10508800BD4680BDB403002080B487B000AFF8608F
:10509800B9601346FB710123FB750023BB751F4BD9
:1050A8005B7ADBB2002B31D11C4B5B7ADBB21A4640
:1050B8001A4B00219954194B5B7ADBB2174A9B00B3
:1050C8001344FA685A60154B5B7ADBB21A46134BE5
:1050D8001344FA791A72114B5B7ADBB25A1CD1B2BB
:1050E8000E4A5172BB75BB7D3033DAB2BB681A7099
:1050F800BB6801333A221A70BB6802332F221A7038
:10510800BB68033300221A700023FB75FB7D184629
:105118001C37BD465DF8047B704700BFDC030020E8
:1051280080B582B000AF786039600022396878684D
:10513800FFF7AAFF034618460837BD4680BD02445C
:105148000346934200D1704703F8011BF9E70000BA
:1051580070B50D4D0D4C641BA4100026A64209D154
:105168000B4D0C4C00F018F8641BA4100026A64246
:1051780005D170BD55F8043B98470136EEE755F860
:10518800043B98470136F2E7F0510008F051000857
:10519800F0510008F4510008F8B500BFF8BC08BC8D
:1051A8009E467047F8B500BFF8BC08BC9E467047DD
:1051B80000000000000000000000000001020304DD
:1051C800060708090006101600061016054500080F
:1051D8003D4500085945000805460008B146000845
:0851E80010B0FF7F0100000080
:0451F000AD01000805
:0451F4008901000825
:0C51F8000024F400100000000101000081
:0400000508000B01E3
:00000001FF
