:020000040800F2
:1000000000000220390E00088D0D0008950D000833
:100010009D0D0008A50D0008AD0D000800000000B2
:10002000000000000000000000000000B50D000806
:10003000C30D000800000000D10D0008DF0D00080E
:10004000890E0008890E0008890E0008890E000834
:10005000890E0008890E0008890E0008890E000824
:10006000890E0008890E0008890E0008ED0D0008B1
:10007000890E0008890E0008890E0008890E000804
:10008000890E0008010E0008890E0008890E00087C
:10009000890E0008890E0008890E0008890E0008E4
:1000A000890E0008890E0008890E0008890E0008D4
:1000B000890E0008890E0008890E0008890E0008C4
:1000C000890E0008890E0008890E0008890E0008B4
:1000D000890E0008890E0008890E0008890E0008A4
:1000E000890E0008890E0008890E0008890E000894
:1000F000890E0008890E0008890E0008890E000884
:10010000890E0008890E0008890E0008890E000873
:10011000890E0008890E0008890E0008890E000863
:10012000890E0008890E0008890E0008890E000853
:10013000890E0008890E0008890E0008890E000843
:10014000890E0008890E0008890E0008890E000833
:10015000890E0008890E0008890E0008890E000823
:10016000890E0008890E0008890E0008890E000813
:10017000890E0008890E0008890E000800000000A2
:08018000890E0008890E000839
:1001880010B5054C237833B9044B13B10448AFF3C9
:1001980000800123237010BD0C0000200000000027
:1001A8001C51000808B5034B1BB103490348AFF3C2
:1001B800008008BD00000000100000201C5100084D
:1001C80053B94AB9002908BF00281CBF4FF0FF31B6
:1001D8004FF0FF3000F088B9ADF1080C6DE904CE9E
:1001E80000F006F8DDF804E0DDE9022304B070470A
:1001F8002DE9F047089D8E4604468846002B4AD1D3
:100208008A42174662D9B2FA82F64EB1C6F1200385
:1002180001FA06F820FA03F3B74043EA0808B440A5
:100228004FEA174E1FFA87FCB8FBFEF1230C0EFBB2
:10023800118843EA084301FB0CF29A4209D9FB18DA
:1002480001F1FF3080F0EA809A4240F2E7800239FB
:100258003B449A1AA3B2B2FBFEF00EFB102243EA0B
:10026800024300FB0CFC9C4509D9FB1800F1FF3246
:1002780080F0D6809C4540F2D3803B44023840EA67
:100288000140A3EB0C0300211DB1F3400022C5E996
:100298000032BDE8F0878B4205D90DB1C5E90001F0
:1002A80000210846F5E7B3FA83F1002946D17345E2
:1002B80002D3824200F20581841A6EEB0302012008
:1002C8009046002DE5D0C5E90048E2E7002A00F095
:1002D8009080B2FA82F6002E40F0A4808A1A030CAD
:1002E8004FEA174E80B2BCB20121B2FBFEFC0EFBF6
:1002F8001C2243EA024304FB0CF29A4207D9FB187A
:100308000CF1FF3802D29A4200F2E080C4469B1AF0
:10031800B3FBFEF20EFB123340EA034302FB04F484
:100328009C4207D9FB1802F1FF3002D29C4200F22E
:10033800CA8002461B1B42EA0C40A5E7C1F1200611
:100348008B4022FA06F71F430EFA01F420FA06F34F
:100358002EFA06FE4FEA1749234300FA01F81FFA5E
:1003680087FCBEFBF9F01C0C09FB10EE44EA0E44B6
:1003780000FB0CFEA64502FA01F209D93C1900F16E
:10038800FF3A80F09C80A64540F2998002383C44B0
:10039800A4EB0E041FFA83FEB4FBF9F309FB134424
:1003A8004EEA044403FB0CFCA44508D93C1903F1AC
:1003B800FF3E80F08280A4457FD9023B3C4443EA5B
:1003C8000040A4EB0C04A0FB02EC64457346E14634
:1003D80062D35FD05DB1B8EB030264EB090404FAA1
:1003E80006F622FA01F31E43CC40C5E90064002159
:1003F8004FE7B1FBF2FC010C41EA0E4180B240EA42
:1004080001423B4638463C46B846BE462026B1FB2C
:10041800F7F1A2EB080241EA0C4166E7014618E74A
:1004280010462CE7C6F120022EFA02F3B740B1407D
:1004380020FA02F24FEA174E0A43B3FBFEF8BCB2A9
:100448000EFB1833110C41EA034108FB04F9B040D4
:1004580089454FEA104380B23ED9791808F1FF3C2C
:1004680001D289451FD8A1EB0901B1FBFEF909FBAF
:1004780004F80EFB191192B242EA0142424529D210
:10048800BA1809F1FF31C4D24245C2D2A9F102011A
:100498003A44BEE7F0459DD2BEEB02036CEB070C75
:1004A8000138E14696E7A7EB09094944A8F1020C8F
:1004B800B1FBFEF909FB04F8DBE773467FE750461A
:1004C80066E70846FDE63B44023A33E7ACF1020C26
:1004D8003B441CE749469CE7A1EB0901C446B1FB34
:1004E800FEF909FB04F8C4E7704700BF80B500AF08
:1004F80000F0C8FC00F01AF800F09EF900F074F95A
:1005080000F0B0F800F046F900F0DAF804F0F6FB75
:1005180000F074F800F008F901224021024801F0C7
:10052800DBFB00BFFDE700BF0000024080B594B0D0
:1005380000AF07F1200330220021184604F0BDFD6A
:1005480007F10C0300221A605A609A60DA601A6197
:100558000023BB60274B1B6C264A43F0805313646F
:10056800244B1B6C03F08053BB60BB6800237B608B
:10057800214B1B68204A43F4804313601E4B1B68C1
:1005880003F480437B607B6802233B620123FB62A8
:1005980010233B630223BB630023FB6310233B64EC
:1005A800C0237B640223BB640423FB6407F120039C
:1005B800184601F0EFFC0346002B01D000F0A6F925
:1005C8000F23FB6000233B6100237B610023BB6199
:1005D8000023FB6107F10C030021184601F052FFCC
:1005E8000346002B01D000F091F900BF5037BD46FB
:1005F80080BD00BF003802400070004080B500AFE9
:10060800164B174A1A60154B10225A60134B0022DA
:100618009A60124B0022DA60104B00221A610F4BCD
:1006280000225A610D4B00221A760C4B00225A7692
:100638000A4B00229A76094B0022DA76074B0022F1
:100648001A77064B00225A77044800F0B1FC03469B
:10065800002B01D000F05AF900BF80BD280000200F
:100668000064004080B500AF124B134A1A60114B6A
:10067800124A5A600F4B00229A600E4B0022DA6031
:100688000C4B4FF480421A610A4B00225A61094B05
:1006980000229A61074B0022DA61064B00221A6297
:1006A800044801F033FB0346002B01D000F02EF97B
:1006B80000BF80BD5000002000540040A08601000B
:1006C80080B500AF164B174A1A60154B00225A60C6
:1006D800134B00229A60124B0022DA60104B4FF441
:1006E80000621A610E4B00225A610D4B00229A617A
:1006F8000B4B00221A610A4802F0A4F80346002BAB
:1007080001D000F003F94FF40061054802F086FEBD
:100718000346002B01D000F0F9F800BF80BD00BFF0
:1007280064010020002C014080B500AF174B184A27
:100738001A60164B4FF482725A60144B00229A606A
:10074800124B0022DA60114B00221A610F4B002273
:100758005A610E4B4FF400729A610C4B0022DA6119
:100768000A4B00221A62094B00225A62074B0022E8
:100778009A62064B0A22DA62044803F0FDF903463E
:10078800002B01D000F0C2F800BF80BDE8010020B6
:100798000030014080B500AF114B124A1A60104B6F
:1007A8004FF4E1325A600E4B00229A600C4B002243
:1007B800DA600B4B00221A61094B0C225A61084B74
:1007C80000229A61064B0022DA61054803F05DFABF
:1007D8000346002B01D000F099F800BF80BD00BF90
:1007E800400200200044004080B582B000AF0023E2
:1007F8007B60104B1B6B0F4A43F4001313630D4BC4
:100808001B6B03F400137B607B68002200210B2024
:1008180000F0A5FD0B2000F0BEFD002200211120F4
:1008280000F09DFD112000F0B6FD00BF0837BD4661
:1008380080BD00BF0038024080B58AB000AF07F124
:10084800140300221A605A609A60DA601A61002361
:100858003B612C4B1B6B2B4A43F001031363294B61
:100868001B6B03F001033B613B690023FB60254BD5
:100878001B6B244A43F004031363224B1B6B03F0E6
:100888000403FB60FB680023BB601E4B1B6B1D4A07
:1008980043F0080313631B4B1B6B03F00803BB6097
:1008A800BB6800237B60174B1B6B164A43F002039F
:1008B8001363144B1B6B03F002037B607B680022FD
:1008C8002021114801F008FA20237B610123BB6134
:1008D8000023FB6100233B6207F1140319460A4811
:1008E80001F05EF840237B610023BB610023FB61BC
:1008F80007F114031946044801F052F800BF2837DD
:10090800BD4680BD003802400000024080B400AF00
:1009180072B600BF00BFFDE780B483B000AF00230C
:100928007B60104B5B6C0F4A43F4804353640D4B60
:100938005B6C03F480437B607B6800233B60094B5E
:100948001B6C084A43F080531364064B1B6C03F07E
:1009580080533B603B6800BF0C37BD465DF8047BA5
:10096800704700BF0038024080B58AB000AF786099
:1009780007F1140300221A605A609A60DA601A615B
:100988007B681B68194A93422CD100233B61184BA2
:100998001B6C174A43F000731364154B1B6C03F070
:1009A80000733B613B690023FB60114B1B6B104AD2
:1009B80043F0010313630E4B1B6B03F00103FB6051
:1009C800FB684FF4C0537B610223BB610023FB61CA
:1009D80003233B6209237B6207F114031946054888
:1009E80000F0DEFF00BF2837BD4680BD0064004030
:1009F800003802400000024080B58AB000AF78603D
:100A080007F1140300221A605A609A60DA601A61CA
:100A18007B681B68484A934240F0898000233B6109
:100A2800464B1B6B454A43F002031363434B1B6B56
:100A380003F002033B613B694FF440737B6112236F
:100A4800BB610023FB6103233B6204237B6207F144
:100A5800140319463A4800F0A3FF0023FB60374B04
:100A68001B6C364A43F400131364344B1B6C03F4B9
:100A78000013FB60FB68334B334A1A60314B4FF06D
:100A880000725A602F4B00229A602E4B0022DA60C7
:100A98002C4B4FF480621A612A4B00225A61294B71
:100AA80000229A61274B0022DA61264B00221A6243
:100AB800244B00225A62234800F088FC0346002B8E
:100AC80001D0FFF723FF7B681E4A9A631D4A7B68A3
:100AD80093631E4B1E4A1A601C4B4FF000725A60FB
:100AE8001A4B40229A60194B0022DA60174B4FF4D8
:100AF80080621A61154B00225A61144B00229A61D8
:100B0800124B0022DA61114B00221A620F4B0022AD
:100B18005A620E4800F05AFC0346002B01D0FFF73A
:100B2800F5FE7B68094A5A63084A7B68936300BFED
:100B38002837BD4680BD00BF005400400038024041
:100B480000040240A40000201060024004010020BC
:100B5800A060024080B58AB000AF786007F1140346
:100B680000221A605A609A60DA601A617B681B6812
:100B7800284A93424AD100233B61274B5B6C264AA3
:100B880043F400635364244B5B6C03F400633B61E0
:100B98003B690023FB60204B1B6B1F4A43F0040397
:100BA80013631D4B1B6B03F00403FB60FB680023FE
:100BB800BB60194B1B6B184A43F008031363164BB1
:100BC8001B6B03F00803BB60BB684FF4F8537B61F1
:100BD8000223BB610023FB6103233B620C237B627E
:100BE80007F1140319460D4800F0DAFE04237B616F
:100BF8000223BB610023FB6103233B620C237B625E
:100C080007F114031946064800F0CAFE00BF28374A
:100C1800BD4680BD002C014000380240000802405B
:100C2800000C024080B58AB000AF786007F1140369
:100C380000221A605A609A60DA601A617B681B6841
:100C4800284A934249D100233B61274B5B6C264AD3
:100C580043F480535364244B5B6C03F480533B612F
:100C68003B690023FB60204B1B6B1F4A43F00103C9
:100C780013631D4B1B6B03F00103FB60FB68002330
:100C8800BB60194B1B6B184A43F002031363164BE6
:100C98001B6B03F00203BB60BB6880237B610223EC
:100CA800BB610023FB6103233B6205237B6207F1E1
:100CB800140319460D4800F073FE18237B610223C4
:100CC800BB610023FB6103233B6205237B6207F1C1
:100CD80014031946064800F063FE00BF2837BD46D6
:100CE80080BD00BF003001400038024000000240D3
:100CF8000004024080B58AB000AF786007F11403A1
:100D080000221A605A609A60DA601A617B681B6870
:100D1800194A93422BD100233B61184B1B6C174A8D
:100D280043F400331364154B1B6C03F400333B612D
:100D38003B690023FB60114B1B6B104A43F0010316
:100D480013630E4B1B6B03F00103FB60FB680C2362
:100D58007B610223BB610023FB6103233B62072302
:100D68007B6207F114031946054800F019FE00BF1D
:100D78002837BD4680BD00BF00440040003802400F
:100D88000000024080B400AF00BFFDE780B400AFB0
:100D980000BFFDE780B400AF00BFFDE780B400AF3F
:100DA80000BFFDE780B400AF00BFFDE780B400AF2F
:100DB80000BFBD465DF8047B704780B400AF00BF3C
:100DC800BD465DF8047B704780B400AF00BFBD46E8
:100DD8005DF8047B704780B500AF00F0A5F800BF50
:100DE80080BD000080B500AF024800F09DFB00BF49
:100DF80080BD00BFA400002080B500AF024800F00D
:100E080093FB00BF80BD00BF0401002080B400AF89
:100E1800064BD3F88830054A43F47003C2F888308B
:100E280000BFBD465DF8047B704700BF00ED00E0E1
:100E3800DFF834D0FFF7EAFF0C480D490D4A0023CC
:100E480002E0D458C4500433C4188C42F9D30A4A77
:100E58000A4C002301E013600432A242FBD304F0E1
:100E680035F9FFF743FB704700000220000000201F
:100E78000C000020785100080C000020A00200207F
:100E8800FEE7000080B500AF0E4B1B680D4A43F427
:100E9800007313600B4B1B680A4A43F480631360AA
:100EA800084B1B68074A43F480731360032000F063
:100EB8004BFA0F2000F008F8FFF72EFD0023184624
:100EC80080BD00BF003C024080B582B000AF7860B2
:100ED800124B1A68124B1B7819464FF47A73B3FBFE
:100EE800F1F3B2FBF3F3184600F063FA0346002B64
:100EF80001D001230EE07B680F2B0AD80022796805
:100F08004FF0FF3000F02BFA064A7B68136000238D
:100F180000E0012318460837BD4680BD00000020C8
:100F2800080000200400002080B400AF064B1B78A6
:100F38001A46064B1B681344044A136000BFBD469B
:100F48005DF8047B704700BF08000020880200207D
:100F580080B400AF034B1B681846BD465DF8047BA0
:100F6800704700BF8802002080B584B000AF786069
:100F7800FFF7EEFFB8607B68FB60FB68B3F1FF3FEB
:100F880005D00A4B1B781A46FB681344FB6000BF68
:100F9800FFF7DEFF0246BB68D31AFA689A42F7D811
:100FA80000BF00BF1037BD4680BD00BF080000204D
:100FB80080B584B000AF78607B68002B01D1012335
:100FC800EDE07B6893F82030DBB2002B02D1786823
:100FD800FFF7CAFC7B681B681A687B681B6842F0CD
:100FE80001021A60FFF7B4FFF86012E0FFF7B0FFE4
:100FF8000246FB68D31A0A2B0BD97B685B6A43F459
:1010080000327B685A627B68052283F8202001231E
:10101800C5E07B681B685B6803F00103002BE5D023
:101028007B681B681A687B681B6822F002021A60DA
:10103800FFF78EFFF86012E0FFF78AFF0246FB68B1
:10104800D31A0A2B0BD97B685B6A43F400327B689E
:101058005A627B68052283F8202001239FE07B6881
:101068001B685B6803F00203002BE5D17B681B7EDD
:10107800012B08D17B681B681A687B681B6842F0E3
:1010880080021A6007E07B681B681A687B681B6827
:1010980022F080021A607B685B7E012B08D17B6896
:1010A8001B681A687B681B6842F040021A6007E0F8
:1010B8007B681B681A687B681B6822F040021A600C
:1010C8007B689B7E012B08D17B681B681A687B684C
:1010D8001B6842F020021A6007E07B681B681A68E8
:1010E8007B681B6822F020021A607B68DB7E012B7C
:1010F80008D17B681B681A687B681B6822F010029D
:101108001A6007E07B681B681A687B681B6842F0F6
:1011180010021A607B681B7F012B08D17B681B6853
:101128001A687B681B6842F008021A6007E07B684F
:101138001B681A687B681B6822F008021A607B68C3
:101148005B7F012B08D17B681B681A687B681B686A
:1011580042F004021A6007E07B681B681A687B6823
:101168001B6822F004021A607B689A687B68DB6857
:101178001A437B681B691A437B685B6942EA03016F
:101188007B685B685A1E7B681B680A43DA617B6868
:1011980000225A627B68012283F820200023184627
:1011A8001037BD4680BD000080B485B000AF7860C0
:1011B8007B6803F00703FB600C4BDB68BB60BA6815
:1011C8004FF6FF031340BB60FB681A02BB6813436A
:1011D80043F0BF6343F40033BB60044ABB68D36089
:1011E80000BF1437BD465DF8047B704700ED00E092
:1011F80080B400AF044BDB681B0A03F007031846F2
:10120800BD465DF8047B704700ED00E080B483B014
:1012180000AF0346FB7197F90730002B0BDBFB7916
:1012280003F01F02074997F907305B09012000FA0C
:1012380002F241F8232000BF0C37BD465DF8047B5D
:10124800704700BF00E100E080B483B000AF034600
:101258003960FB7197F90730002B0ADB3B68DAB27B
:101268000C4997F907301201D2B20B4483F80023D6
:101278000AE03B68DAB20849FB7903F00F03043B44
:101288001201D2B20B441A7600BF0C37BD465DF886
:10129800047B704700E100E000ED00E080B489B015
:1012A80000AFF860B9607A60FB6803F00703FB6180
:1012B800FB69C3F10703042B28BF0423BB61FB6947
:1012C8000433062B02D9FB69033B00E000237B6152
:1012D8004FF0FF32BB6902FA03F3DA43BB681A40E6
:1012E8007B699A404FF0FF317B6901FA03F3D943D8
:1012F8007B680B40134318462437BD465DF8047BD2
:101308007047000080B582B000AF78607B68013B11
:10131800B3F1807F01D301230FE00A4A7B68013BC8
:1013280053600F214FF0FF30FFF78EFF054B00226F
:101338009A60044B07221A60002318460837BD46F6
:1013480080BD00BF10E000E080B582B000AF7860DB
:101358007868FFF729FF00BF0837BD4680BD80B514
:1013680086B000AF0346B9607A60FB7300237B61E7
:10137800FFF73EFF78617A68B9687869FFF78EFFF2
:10138800024697F90F3011461846FFF75DFF00BF78
:101398001837BD4680BD80B582B000AF0346FB71EB
:1013A80097F907301846FFF731FF00BF0837BD46E9
:1013B80080BD80B582B000AF78607868FFF7A2FF83
:1013C800034618460837BD4680BD000080B586B084
:1013D80000AF786000237B61FFF7BAFD38617B6856
:1013E800002B01D1012399E07B68022283F8352084
:1013F8007B68002283F834207B681B681A687B6846
:101408001B6822F001021A600FE0FFF7A1FD0246F7
:101418003B69D31A052B08D97B6820225A657B685B
:10142800032283F83520032378E07B681B681B6858
:1014380003F00103002BE8D17B681B681B687B6104
:101448007A69384B13407B617B685A687B689B6874
:101458001A437B68DB681A437B681B691A437B68FD
:101468005B691A437B689B691A437B68DB691A438B
:101478007B681B6A13437A6913437B617B685B6AE9
:10148800042B07D17B68DA6A7B681B6B13437A6984
:1014980013437B617B681B687A691A607B681B68E9
:1014A8005B697B617B6923F007037B617B685B6A0F
:1014B8007A6913437B617B685B6A042B17D17B686D
:1014C8009B6A7A6913437B617B68DB6A002B0ED0C9
:1014D800786800F0E9F90346002B08D07B684022C1
:1014E8005A657B68012283F83520012316E07B6862
:1014F8001B687A695A61786800F0A0F90346FB60B6
:101508007B68DB6D3F229A40FB689A607B6800220B
:101518005A657B68012283F835200023184618375E
:10152800BD4680BD3F8010F080B586B000AF7860C2
:101538000023BB608E4B1B688E4AA2FB03239B0AC9
:101548007B617B689B6D3B613B691B68FB607B68CB
:10155800DB6D08229A40FB681340002B1AD07B6889
:101568001B681B6803F00403002B13D07B681B68FF
:101578001A687B681B6822F004021A607B68DB6DBE
:1015880008229A403B699A607B685B6D43F00102D0
:101598007B685A657B68DB6D01229A40FB681340C3
:1015A800002B12D07B681B685B6903F08003002B5B
:1015B8000BD07B68DB6D01229A403B699A607B689F
:1015C8005B6D43F002027B685A657B68DB6D042221
:1015D8009A40FB681340002B12D07B681B681B687D
:1015E80003F00203002B0BD07B68DB6D04229A40CA
:1015F8003B699A607B685B6D43F004027B685A65BF
:101608007B68DB6D10229A40FB681340002B43D0A7
:101618007B681B681B6803F00803002B3CD07B68C1
:10162800DB6D10229A403B699A607B681B681B68D7
:1016380003F48023002B18D07B681B681B6803F415
:101648000023002B08D17B681B6C002B24D07B68FF
:101658001B6C786898471FE07B689B6C002B1BD03D
:101668007B689B6C7868984716E07B681B681B68EA
:1016780003F48073002B07D17B681B681A687B68AA
:101688001B6822F008021A607B681B6C002B03D0D1
:101698007B681B6C786898477B68DB6D20229A40D2
:1016A800FB681340002B00F08F807B681B681B6869
:1016B80003F01003002B00F087807B68DB6D20228D
:1016C8009A403B699A607B6893F83530DBB2052B0A
:1016D80036D17B681B681A687B681B6822F0160283
:1016E8001A607B681B685A697B681B6822F0800255
:1016F8005A617B681B6C002B03D17B689B6C002BA9
:1017080007D07B681B681A687B681B6822F0080290
:101718001A607B68DB6D3F229A403B699A607B6860
:10172800012283F835207B68002283F834207B6807
:101738001B6D002B7ED07B681B6D7868984779E01D
:101748007B681B681B6803F48023002B1DD07B6813
:101758001B681B6803F40023002B0DD17B685B6CAE
:10176800002B31D07B685B6C786898472CE000BF11
:1017780000000020B5814E1B7B68DB6B002B23D05B
:101788007B68DB6B786898471EE07B681B681B6882
:1017980003F48073002B0FD17B681B681A687B6881
:1017A8001B6822F010021A607B68012283F835203A
:1017B8007B68002283F834207B68DB6B002B03D026
:1017C8007B68DB6B786898477B685B6D002B32D051
:1017D8007B685B6D03F00103002B22D07B68052238
:1017E80083F835207B681B681A687B681B6822F0C1
:1017F80001021A60BB680133BB607A699A4207D359
:101808007B681B681B6803F00103002BF2D100E022
:1018180000BF7B68012283F835207B68002283F8AB
:1018280034207B68DB6C002B05D07B68DB6C786828
:10183800984700E000BF1837BD4680BD80B485B02A
:1018480000AF78607B681B68DBB2103B144AA2FBD0
:1018580003231B09FB60134AFB6813441B781A46D1
:101868007B68DA65FB68032B09D97B681B6823F45E
:101878007F7323F003031A1D7B689A6507E07B6872
:101888001B6823F47F7323F003037A6893657B68EE
:101898009B6D18461437BD465DF8047B704700BF42
:1018A800ABAAAAAA4C51000880B485B000AF7860F2
:1018B8000023FB737B689B6ABB607B689B69002B7A
:1018C8001FD1BB68032B56D801A252F823F000BFE2
:1018D800E9180008FB180008E91800087F19000833
:1018E8007B68DB6A03F08073002B46D00123FB730F
:1018F80043E07B68DB6AB3F1C07F40D10123FB730F
:101908003DE07B689B69B3F5005F21D1BB68032B81
:1019180037D801A252F823F0311900083719000806
:1019280031190008491900080123FB7330E07B686E
:10193800DB6A03F08073002B25D00123FB7322E0C0
:101948007B68DB6AB3F1C07F1FD10123FB731CE006
:10195800BB68022B03D9BB68032B03D018E0012313
:10196800FB7315E07B68DB6A03F08073002B0ED0F5
:101978000123FB730BE000BF0AE000BF08E000BFD3
:1019880006E000BF04E000BF02E000BF00E000BFC7
:10199800FB7B18461437BD465DF8047B704700BFD3
:1019A80080B489B000AF7860396000237B61002380
:1019B8003B610023BB610023FB616BE10122FB69F2
:1019C80002FA03F37B613B681B687A6913403B6149
:1019D8003A697B699A4240F05A813B685B6803F038
:1019E8000303012B05D03B685B6803F00303022B5C
:1019F80030D17B689B68BB61FB695B00032202FAFC
:101A080003F3DB43BA691340BB613B68DA68FB69DF
:101A18005B0002FA03F3BA691343BB617B68BA69D6
:101A28009A607B685B68BB610122FB6902FA03F379
:101A3800DB43BA691340BB613B685B681B0903F071
:101A48000102FB6902FA03F3BA691343BB617B68BD
:101A5800BA695A603B685B6803F00303032B17D02D
:101A68007B68DB68BB61FB695B00032202FA03F356
:101A7800DB43BA691340BB613B689A68FB695B004A
:101A880002FA03F3BA691343BB617B68BA69DA6087
:101A98003B685B6803F00303022B23D1FB69DA0878
:101AA8007B68083253F82230BB61FB6903F00703F7
:101AB8009B000F2202FA03F3DB43BA691340BB61B0
:101AC8003B681A69FB6903F007039B0002FA03F3FA
:101AD800BA691343BB61FB69DA087B680832B969E4
:101AE80043F822107B681B68BB61FB695B0003221B
:101AF80002FA03F3DB43BA691340BB613B685B68D6
:101B080003F00302FB695B0002FA03F3BA691343AB
:101B1800BB617B68BA691A603B685B6803F4403351
:101B2800002B00F0B4800023FB60604B5B6C5F4AC5
:101B380043F4804353645D4B5B6C03F48043FB6068
:101B4800FB685B4AFB699B08023352F82330BB6190
:101B5800FB6903F003039B000F2202FA03F3DB4344
:101B6800BA691340BB617B68524A93422BD07B68A9
:101B7800514A934225D07B68504A93421FD07B68D4
:101B88004F4A934219D07B684E4A934213D07B68E0
:101B98004D4A93420DD07B684C4A934207D07B68EC
:101BA8004B4A934201D107230EE008230CE0062399
:101BB8000AE0052308E0042306E0032304E00223E7
:101BC80002E0012300E00023FA6902F00302920018
:101BD8009340BA691343BB613549FB699B080233DB
:101BE800BA6941F823203B4B9B68BB613B69DB43E7
:101BF800BA691340BB613B685B6803F48013002B30
:101C080003D0BA693B691343BB61324ABB6993602D
:101C1800304BDB68BB613B69DB43BA691340BB618E
:101C28003B685B6803F40013002B03D0BA693B6977
:101C38001343BB61274ABB69D360264B5B68BB6112
:101C48003B69DB43BA691340BB613B685B6803F4DB
:101C58000033002B03D0BA693B691343BB611D4AAB
:101C6800BB6953601B4B1B68BB613B69DB43BA69AB
:101C78001340BB613B685B6803F48033002B03D0DF
:101C8800BA693B691343BB61124ABB691360FB69BC
:101C98000133FB61FB690F2B7FF690AE00BF00BFDD
:101CA8002437BD465DF8047B704700BF003802400A
:101CB80000380140000002400004024000080240D1
:101CC800000C0240001002400014024000180240BC
:101CD800001C0240003C014080B483B000AF786033
:101CE8000B467B8013467B707B78002B03D07A8869
:101CF8007B689A6103E07B881A047B689A6100BF5D
:101D08000C37BD465DF8047B7047000080B584B091
:101D180000AF78607B68002B01D101232BE17B6841
:101D280093F83D30DBB2002B06D17B68002283F8A4
:101D38003C207868FEF760FE7B68242283F83D200B
:101D48007B681B681A687B681B6822F001021A60AE
:101D58007B681B681A687B681B6842F400421A603B
:101D68007B681B681A687B681B6822F400421A604B
:101D780000F040FDF8607B685B68814A934207D8B1
:101D8800FB68804A934294BF01230023DBB206E03C
:101D9800FB687D4A934294BF01230023DBB2002BEA
:101DA80001D00123E7E0FB68784AA2FB03239B0CE0
:101DB800BB607B681B685B6823F03F017B681B681E
:101DC800BA680A435A607B681B681B6A23F03F01A4
:101DD8007B685B686A4A934202D8BB68013309E0B2
:101DE800BB684FF4967202FB03F3694AA2FB032314
:101DF8009B0901337A6812680B4313627B681B687E
:101E0800DB6923F44F4222F0FF027B685B685C4980
:101E18008B4219D8FB68591E7B685B685B00B1FB75
:101E2800F3F3591C40F6FC730B40002B0AD0FB68F7
:101E3800591E7B685B685B00B1FBF3F30133C3F3A6
:101E48000B0351E004234FE07B689B68002B11D102
:101E5800FB68581E7B6859680B465B000B44B0FB57
:101E6800F3F30133C3F30B03002B0CBF012300234F
:101E7800DBB212E0FB68581E7B6859680B469B0072
:101E88000B4499000B44B0FBF3F30133C3F30B038A
:101E9800002B0CBF01230023DBB2002B01D0012350
:101EA80022E07B689B68002B0ED1FB68581E7B687C
:101EB80059680B465B000B44B0FBF3F30133C3F3E3
:101EC8000B0343F400430FE0FB68581E7B68596816
:101ED8000B469B000B4499000B44B0FBF3F3013312
:101EE800C3F30B0343F44043796809681343CB6198
:101EF8007B681B681B6823F0C0017B68DA697B6814
:101F08001B6A1A437B681B680A431A607B681B6854
:101F18009B6823F4034323F0FF037A6811697A6806
:101F2800D26811437A6812680B4393607B681B6818
:101F3800DB6823F0FF017B685A697B689B691A4359
:101F48007B681B680A43DA607B681B681A687B68D1
:101F58001B6842F001021A607B6800221A647B68E1
:101F6800202283F83D207B6800221A637B680022C8
:101F780083F83E20002318461037BD4680BD00BFB9
:101F8800A08601007F841E00FF083D0083DE1B43FE
:101F9800D34D621080B586B000AF78607B68002BA7
:101FA80001D1012367E27B681B6803F00103002B62
:101FB80075D0884B9B6803F00C03042B0CD0854B21
:101FC8009B6803F00C03082B12D1824B5B6803F467
:101FD8008003B3F5800F0BD17E4B1B6803F40033ED
:101FE800002B5BD07B685B68002B57D1012342E252
:101FF8007B685B68B3F5803F06D1764B1B68754AF2
:1020080043F4803313601DE07B685B68B3F5A02F51
:102018000CD1704B1B686F4A43F4802313606D4BDF
:102028001B686C4A43F4803313600BE0694B1B68F0
:10203800684A23F480331360664B1B68654A23F4AF
:10204800802313607B685B68002B13D0FEF780FF4A
:10205800386108E0FEF77CFF02463B69D31A642B1F
:1020680001D9032307E25B4B1B6803F40033002B01
:10207800F0D014E0FEF76CFF386108E0FEF768FF67
:1020880002463B69D31A642B01D90323F3E1514B70
:102098001B6803F40033002BF0D100E000BF7B681D
:1020A8001B6803F00203002B63D04A4B9B6803F0C4
:1020B8000C03002B0BD0474B9B6803F00C03082B39
:1020C8001CD1444B5B6803F48003002B16D1414BB1
:1020D8001B6803F00203002B05D07B68DB68012B2B
:1020E80001D00123C7E13B4B1B6823F0F8027B6852
:1020F8001B69DB00374913430B603AE07B68DB68F8
:10210800002B20D0344B01221A60FEF721FF3861E2
:1021180008E0FEF71DFF02463B69D31A022B01D9DE
:102128000323A8E12B4B1B6803F00203002BF0D01C
:10213800284B1B6823F0F8027B681B69DB002549E4
:1021480013430B6015E0244B00221A60FEF700FFD2
:10215800386108E0FEF7FCFE02463B69D31A022B01
:1021680001D9032387E11B4B1B6803F00203002BF3
:10217800F0D17B681B6803F00803002B36D07B681E
:102188005B69002B16D0154B01221A60FEF7E0FEA2
:10219800386108E0FEF7DCFE02463B69D31A022BE1
:1021A80001D9032367E10B4B5B6F03F00203002B9C
:1021B800F0D01BE0094B00221A60FEF7C9FE386117
:1021C8000EE0FEF7C5FE02463B69D31A022B07D97B
:1021D800032350E10038024000004742800E474286
:1021E800884B5B6F03F00203002BEAD17B681B6806
:1021F80003F00403002B00F097800023FB75814B4C
:102208001B6C03F08053002B0FD10023BB607D4B68
:102218001B6C7C4A43F0805313647A4B1B6C03F0AD
:102228008053BB60BB680123FB75774B1B6803F4C5
:102238008073002B18D1744B1B68734A43F4807366
:102248001360FEF785FE386108E0FEF781FE02465E
:102258003B69D31A022B01D903230CE16A4B1B6893
:1022680003F48073002BF0D07B689B68012B06D1A8
:10227800644B1B6F634A43F0010313671CE07B68E0
:102288009B68052B0CD15F4B1B6F5E4A43F0040320
:1022980013675C4B1B6F5B4A43F0010313670BE04A
:1022A800584B1B6F574A23F001031367554B1B6F9D
:1022B800544A23F0040313677B689B68002B15D0EE
:1022C800FEF746FE38610AE0FEF742FE02463B6929
:1022D800D31A41F28832934201D90323CBE0494B08
:1022E8001B6F03F00203002BEED014E0FEF730FE64
:1022F80038610AE0FEF72CFE02463B69D31A41F228
:102308008832934201D90323B5E03E4B1B6F03F09B
:102318000203002BEED1FB7D012B05D1394B1B6C41
:10232800384A23F0805313647B689B69002B00F0C4
:10233800A180344B9B6803F00C03082B5CD07B68AE
:102348009B69022B41D1314B00221A60FEF700FE37
:10235800386108E0FEF7FCFD02463B69D31A022B00
:1023680001D9032387E0274B1B6803F00073002B78
:10237800F0D17B68DA697B681B6A1A437B685B6A01
:102388009B011A437B689B6A5B08013B1B041A4349
:102398007B68DB6A1B061B4913434B601B4B0122FE
:1023A8001A60FEF7D5FD386108E0FEF7D1FD024658
:1023B8003B69D31A022B01D903235CE0114B1B683C
:1023C80003F00073002BF0D054E0104B00221A6089
:1023D800FEF7BEFD386108E0FEF7BAFD02463B692C
:1023E800D31A022B01D9032345E0064B1B6803F0DF
:1023F8000073002BF0D13DE07B689B69012B07D16E
:10240800012338E000380240007000406000474275
:102418001B4B5B68FB607B689B69012B28D0FB68C2
:1024280003F480027B68DB699A4221D1FB6803F0E0
:102438003F027B681B6A9A421AD1FA6847F6C07352
:1024480013407A68526A9201934211D1FB6803F4EF
:1024580040327B689B6A5B08013B1B049A4207D1A8
:10246800FB6803F070627B68DB6A1B069A4201D046
:10247800012300E0002318461837BD4680BD00BF81
:102488000038024080B584B000AF786039607B685E
:10249800002B01D10123CCE0684B1B6803F0070334
:1024A8003A689A420CD9654B3A68D2B21A70634BB3
:1024B8001B6803F007033A689A4201D00123B8E089
:1024C8007B681B6803F00203002B20D07B681B6825
:1024D80003F00403002B05D0594B9B68584A43F47A
:1024E800E05393607B681B6803F00803002B05D05A
:1024F800534B9B68524A43F460439360504B9B682C
:1025080023F0F0027B689B684D4913438B607B681E
:102518001B6803F00103002B44D07B685B68012B28
:1025280007D1474B1B6803F40033002B19D1012353
:102538007FE07B685B68022B03D07B685B68032BBA
:1025480007D13F4B1B6803F00073002B09D101230F
:102558006FE03B4B1B6803F00203002B01D1012302
:1025680067E0374B9B6823F003027B685B6834495C
:1025780013438B60FEF7ECFCF8600AE0FEF7E8FC1A
:102588000246FB68D31A41F28832934201D90323E9
:102598004FE02B4B9B6803F00C027B685B689B0049
:1025A8009A42EBD1254B1B6803F007033A689A421D
:1025B8000CD2224B3A68D2B21A70204B1B6803F037
:1025C80007033A689A4201D0012332E07B681B680E
:1025D80003F00403002B08D0194B9B6823F4E05246
:1025E8007B68DB68164913438B607B681B6803F0C4
:1025F8000803002B09D0124B9B6823F460427B68C8
:102608001B69DB000E4913438B6000F021F802467A
:102618000B4B9B681B0903F00F030A49CB5C22FA9A
:1026280003F3094A1360094B1B681846FEF74CFC74
:10263800002318461037BD4680BD00BF003C02404D
:102648000038024034510008000000200400002037
:102658002DE9B04F90B000AF00237B630023FB63EC
:1026680000233B630023BB63594B9B6803F00C03B7
:10267800082B0DD0082B00F2A180002B02D0042BD0
:1026880003D09BE0534BBB639BE0534BBB6398E089
:102698004F4B5B6803F03F037B634D4B5B6803F470
:1026A8008003002B28D04A4B5B689B0900223B62C1
:1026B8007A623B6AC3F308000021474B03FB01F22F
:1026C800002300FB03F31344434AA0FB0212FA62FF
:1026D8000A46BA62FA6A1344FB627B6B0022BB614A
:1026E800FA61D7E90623D7E90A01FDF769FD024631
:1026F8000B461346FB6353E0354B5B689B0900228E
:102708003B617A613B69C3F3080A4FF0000B5246FC
:102718005B464FF000004FF00001590141EAD261D9
:10272800500102460B46B2EB0A0863EB0B094FF067
:1027380000024FF000034FEA891343EA98634FEA17
:102748008812B2EB080463EB09054FF000024FF062
:102758000003EB0043EA5473E20014461D4614EBF1
:102768000A033B6045EB0B037B604FF000024FF020
:102778000003D7E9004529468B02214643EA9153D5
:1027880021468A02104619467B6B0022BB60FA601C
:10279800D7E90223FDF714FD02460B461346FB63F7
:1027A8000B4B5B681B0C03F0030301335B003B63BB
:1027B800FA6B3B6BB2FBF3F3BB6302E0054BBB6305
:1027C80000BFBB6B18464037BD46BDE8B08F00BFA1
:1027D800003802400024F40040787D0180B400AF46
:1027E800034B1B681846BD465DF8047B704700BF65
:1027F8000000002080B500AFFFF7F0FF0246054B50
:102808009B689B0A03F007030349CB5C22FA03F396
:10281800184680BD003802404451000880B500AF1A
:10282800FFF7DCFF0246054B9B685B0B03F00703D1
:102838000349CB5C22FA03F3184680BD00380240F6
:102848004451000880B582B000AF78607B68002BE7
:1028580001D1012322E07B6893F83430DBB2002BEE
:1028680005D17B6800221A777868FEF773F97B68D0
:10287800032283F83420786800F014F80346002B0C
:1028880001D001230AE07B6800229A637B6800225A
:102898001A637B68012283F834200023184608371E
:1028A800BD4680BDB0B58EB004AF78600023FB6034
:1028B80000233B6100237B610023BB610023FB6194
:1028C80076233B627B681D686C4607F1180393E822
:1028D800070084E8070007F10C030ECB284601F037
:1028E80099FC2A4B00221A607B681B68184601F085
:1028F800DAFC264B01221A600220FEF735FB7868C5
:1029080000F014FF78627B6A002B0BD07B680122F1
:1029180083F834207B689A6B7B6A1A437B689A63D6
:1029280001232EE0786800F033FE78627B6A002B82
:102938000BD07B68012283F834207B689A6B7B6A12
:102948001A437B689A6301231BE07B681B684FF47A
:102958000071184601F039FD78627B6A002B0FD0B0
:102968007B681B680A4A9A637B689A6B7B6A1A437E
:102978007B689A637B68012283F83420012300E096
:10298800002318462837BD46B0BD00BFA0802542A9
:10299800FF05400080B592B000AFF860B9607A607A
:1029A8003B60FEF7D5FA38637B68BB63BB687B6323
:1029B800BB68002B07D1FB689B6B43F00062FB6888
:1029C8009A630123C5E1FB6893F83430DBB2012B2D
:1029D80040F0B881FB6800229A63BA6B3B681A44DE
:1029E800FB68DB6D9A4207D9FB689B6B43F000726A
:1029F800FB689A630123ACE1FB68032283F8342067
:102A0800FB681B680022DA62FB685B6C012B02D052
:102A1800BB6B5B02BB634FF0FF337B613B685B02C0
:102A2800BB619023FB6102233B6200237B6201238D
:102A3800BB62FB681B6807F114021146184601F0D7
:102A480098FC3B68012B0AD9FB6802221A63FB68D1
:102A58001B68B96B184601F0FCFC786409E0FB6858
:102A680001221A63FB681B68B96B184601F0CFFC9A
:102A780078647B6C002B12D0FB681B687E4A9A63D3
:102A8800FB689A6B7B6C1A43FB689A63FB680122AC
:102A980083F83420FB6800221A63012359E1BB69DB
:102AA800FB6361E0FB681B685B6B03F40043002B6E
:102AB8003CD0FB6B002B39D000233B6433E0FB6830
:102AC8001B68184601F0D1FBF862FB6ADAB27B6B2F
:102AD8001A707B6B01337B63FB6B013BFB63FB6A07
:102AE8001B0ADAB27B6B1A707B6B01337B63FB6B5F
:102AF800013BFB63FB6A1B0CDAB27B6B1A707B6BC6
:102B080001337B63FB6B013BFB63FB6A1B0EDAB291
:102B18007B6B1A707B6B01337B63FB6B013BFB6345
:102B28003B6C01333B643B6C072BC8D9FEF710FAAA
:102B380002463B6BD31A3A6D9A4202D93B6D002B81
:102B480012D1FB681B684C4A9A63FB689B6B43F085
:102B58000042FB689A63FB68012283F83420FB6813
:102B680000221A630323F4E0FB681B685A6B40F2E7
:102B78002A331340002B95D0FB681B685B6B03F46A
:102B88008073002B22D03B68012B1FD9FB685B6C3C
:102B9800032B1BD0FB681B68184601F0C1FC786446
:102BA8007B6C002B12D0FB681B68334A9A63FB6866
:102BB8009A6B7B6C1A43FB689A63FB68012283F863
:102BC8003420FB6800221A630123C2E0FB681B68FB
:102BD8005B6B03F00803002B06D1FB681B685B6B7B
:102BE80003F40073002B12D0FB681B68224A9A6317
:102BF800FB689B6B43F00802FB689A63FB68012241
:102C080083F83420FB6800221A630123A1E0FB68E3
:102C18001B685B6B03F00203002B12D0FB681B6878
:102C2800154A9A63FB689B6B43F00202FB689A6340
:102C3800FB68012283F83420FB6800221A63012311
:102C480087E0FB681B685B6B03F02003002B64D0F4
:102C5800FB681B68084A9A63FB689B6B43F0200279
:102C6800FB689A63FB68012283F83420FB68002222
:102C78001A6301236DE000BFFF054000FB681B6875
:102C8800184601F0F2FAF862FB6ADAB27B6B1A7046
:102C98007B6B01337B63FB6B013BFB63FB6A1B0AAA
:102CA800DAB27B6B1A707B6B01337B63FB6B013B86
:102CB800FB63FB6A1B0CDAB27B6B1A707B6B01330C
:102CC8007B63FB6B013BFB63FB6A1B0EDAB27B6B1E
:102CD8001A707B6B01337B63FB6B013BFB63FEF775
:102CE80037F902463B6BD31A3A6D9A4202D93B6DCB
:102CF800002B12D1FB681B68184A9A63FB689B6B10
:102D080043F00042FB689A63FB68012283F8342091
:102D1800FB6800221A6301231BE0FB681B685B6BDE
:102D280003F40013002B02D0FB6B002BA6D1FB6829
:102D38001B6840F23A529A63FB68012283F83420F8
:102D4800002306E0FB689B6B43F00052FB689A6324
:102D5800012318464837BD4680BD00BFFF05400027
:102D680080B592B000AFF860B9607A603B60FEF75A
:102D7800EFF838637B68BB63BB687B63BB68002B79
:102D880007D1FB689B6B43F00062FB689A630123E1
:102D98006DE1FB6893F83430DBB2012B40F06081C1
:102DA800FB6800229A63BA6B3B681A44FB68DB6DC8
:102DB8009A4207D9FB689B6B43F00072FB689A63E1
:102DC800012354E1FB68032283F83420FB681B6865
:102DD8000022DA62FB685B6C012B02D0BB6B5B02E2
:102DE800BB634FF0FF33BB613B685B02FB61902321
:102DF8003B6200237B620023BB620123FB62FB680A
:102E08001B6807F118021146184601F0B2FA3B6830
:102E1800012B0AD9FB6820221A63FB681B68B96B6F
:102E2800184601F05AFB786409E0FB6810221A631F
:102E3800FB681B68B96B184601F02DFB78647B6C46
:102E4800002B12D0FB681B688B4A9A63FB689A6B4D
:102E58007B6C1A43FB689A63FB68012283F8342071
:102E6800FB6800221A63012301E1FB69FB6365E04B
:102E7800FB681B685B6B03F48043002B40D0FB6B43
:102E8800002B3DD000233B6437E07B6B1B787B61D4
:102E98007B6B01337B63FB6B013BFB637B6B1B78B9
:102EA8001A027B6913437B617B6B01337B63FB6B8A
:102EB800013BFB637B6B1B781A047B6913437B61C3
:102EC8007B6B01337B63FB6B013BFB637B6B1B7889
:102ED8001A067B6913437B617B6B01337B63FB6B56
:102EE800013BFB63FB681B6807F114021146184697
:102EF80001F0C8F93B6C01333B643B6C072BC4D928
:102F0800FEF726F802463B6BD31A3A6D9A4202D96D
:102F18003B6D002B12D1FB681B68574A9A63FB680C
:102F28009A6B7B6C1A43FB689A63FB68012283F8EF
:102F38003420FB6800221A63032398E0FB681B68AF
:102F48005A6B40F21A331340002B91D0FB681B6870
:102F58005B6B03F48073002B22D03B68012B1FD9D5
:102F6800FB685B6C032B1BD0FB681B68184601F0E1
:102F7800D7FA78647B6C002B12D0FB681B683E4A3A
:102F88009A63FB689A6B7B6C1A43FB689A63FB68CD
:102F9800012283F83420FB6800221A63012366E0CB
:102FA800FB681B685B6B03F00803002B06D1FB680A
:102FB8001B685B6B03F40073002B12D0FB681B6863
:102FC8002D4A9A63FB689B6B43F00802FB689A637F
:102FD800FB68012283F83420FB6800221A6301236E
:102FE80045E0FB681B685B6B03F00203002B12D003
:102FF800FB681B68204A9A63FB689B6B43F00202DC
:10300800FB689A63FB68012283F83420FB6800227E
:103018001A6301232BE0FB681B685B6B03F010034A
:10302800002B12D0FB681B68134A9A63FB689B6BE2
:1030380043F01002FB689A63FB68012283F834208E
:10304800FB6800221A63012311E0FB681B6840F249
:103058003A529A63FB68012283F83420002306E081
:10306800FB689B6B43F00052FB689A630123184688
:103078004837BD4680BD00BFFF05400080B483B01F
:1030880000AF786039607B685B6E9B0FDAB23B6893
:103098001A707B685B6E9B0EDBB203F00F03DAB22B
:1030A8003B685A707B685B6E1B0EDBB203F0030350
:1030B800DAB23B689A707B685B6E1B0CDAB23B68CD
:1030C800DA707B685B6E1B0ADAB23B681A717B6840
:1030D8005B6EDAB23B685A717B689B6E1B0D9AB2C5
:1030E8003B68DA807B689B6E1B0CDBB203F00F0336
:1030F800DAB23B681A727B689B6EDB0BDBB203F0BB
:103108000103DAB23B685A727B689B6E9B0BDBB299
:1031180003F00103DAB23B689A727B689B6E5B0B23
:10312800DBB203F00103DAB23B68DA727B689B6EAC
:103138001B0BDBB203F00103DAB23B681A733B687E
:1031480000225A737B685B6C002B63D17B689B6E93
:103158009A0040F6FC7313407A68D26E920F1A43B5
:103168003B681A617B68DB6EDB0EDBB203F007039A
:10317800DAB23B681A757B68DB6E1B0EDBB203F0B4
:103188000703DAB23B685A757B68DB6E5B0DDBB20E
:1031980003F00703DAB23B689A757B68DB6E9B0C19
:1031A800DBB203F00703DAB23B68DA757B68DB6EE3
:1031B800DB0BDBB203F00703DAB23B681A763B6835
:1031C8001B695A1C7B685A653B681B7EDBB203F09F
:1031D80007030233012202FA03F37A68526D03FBF4
:1031E80002F27B685A653B681B7ADBB203F00F0377
:1031F80001229A407B689A657B685B6D7A68926D5C
:10320800520A03FB02F27B68DA657B684FF40072AE
:103218001A6631E07B685B6C012B1DD17B689B6E65
:103228001B0403F47C127B68DB6E1B0C1A433B689F
:103238001A613B681B6901339A027B685A657B688F
:103248005A6D7B68DA657B684FF400729A657B6813
:103258009A6D7B681A660FE07B681B68584A9A6308
:103268007B689B6B43F080527B689A637B68012282
:1032780083F8342001239DE07B68DB6E9B0BDBB277
:1032880003F00103DAB23B685A767B68DB6EDB0930
:10329800DBB203F07F03DAB23B689A767B68DB6EB9
:1032A800DBB203F07F03DAB23B68DA767B681B6F28
:1032B800DB0FDAB23B681A777B681B6F5B0FDBB2F8
:1032C80003F00303DAB23B685A777B681B6F9B0EE7
:1032D800DBB203F00703DAB23B689A777B681B6FAF
:1032E8009B0DDBB203F00F03DAB23B68DA777B6839
:1032F8001B6F5B0DDBB203F00103DAB23B6883F8A6
:1033080020203B68002283F821207B681B6F1B0C60
:10331800DBB203F00103DAB23B6883F822207B6852
:103328001B6FDB0BDBB203F00103DAB23B6883F8F7
:1033380023207B681B6F9B0BDBB203F00103DAB21F
:103348003B6883F824207B681B6F5B0BDBB203F0C0
:103358000103DAB23B6883F825207B681B6F1B0BDF
:10336800DBB203F00103DAB23B6883F826207B68FE
:103378001B6F9B0ADBB203F00303DAB23B6883F8E6
:1033880027207B681B6F1B0ADBB203F00303DAB24A
:103398003B6883F828207B681B6F5B08DBB203F06F
:1033A8007F03DAB23B6883F829203B68012283F85F
:1033B8002A20002318460C37BD465DF8047B704769
:1033C800FF05400080B483B000AF786039607B6847
:1033D8005A6C3B681A607B689A6C3B685A607B68D9
:1033E800DA6C3B689A607B681A6D3B68DA607B68C8
:1033F8005A6D3B681A617B689A6D3B685A617B68B5
:10340800DA6D3B689A617B681A6E3B68DA61002363
:1034180018460C37BD465DF8047B7047B0B58EB0D2
:1034280004AF78603960002387F827307B6803226F
:1034380083F834207B685B6C032B2ED03B68B3F594
:10344800805F06D17B689B6B43F080527B689A63F0
:1034580029E03B68B3F5006F0AD1786800F01CFAE0
:1034680038627B689A6B3B6A1A437B689A631AE0F6
:103478003B68002B0AD1786800F059FA38627B68FB
:103488009A6B3B6A1A437B689A630CE07B689B6B78
:1034980043F000627B689A6305E07B689B6B43F0AE
:1034A80080527B689A637B689B6B002B0BD07B6890
:1034B8001B68264A9A637B68012283F8342001231B
:1034C80087F827301FE07B685B68BB607B689B6878
:1034D800FB607B68DB683B613B687B617B685B69A1
:1034E800BB617B689B69FB617B681D686C4607F163
:1034F800140393E8070084E8070007F108030ECBDC
:10350800284600F087FE7B681B684FF40071184658
:1035180000F05BFF38623B6A002B0CD07B681B68AD
:103528000A4A9A637B689A6B3B6A1A437B689A6378
:10353800012387F827307B68012283F8342097F825
:10354800273018462837BD46B0BD00BFFF054000EC
:1035580080B586B000AF78600023FB6007F10C03EC
:103568001946786800F070F978617B69002B05D0FE
:103578007B689A6B7B691A437B689A63FB685B0A72
:1035880003F00F033B613B6918461837BD4680BD01
:10359800B0B594B004AF78600123FB817B681B68E9
:1035A800184600F08EFE0346002B02D14FF08063D0
:1035B800B8E07B685B6C032B2FD07B681B681846D0
:1035C80001F0B8F8F863FB6B002B01D0FB6BA9E0A6
:1035D8007B681B680021184600F0B8FE02467B682D
:1035E8005A677B681B680421184600F0AFFE024644
:1035F8007B689A677B681B680821184600F0A6FE5E
:1036080002467B68DA677B681B680C21184600F065
:103618009DFE02467B68C3F880207B685B6C032BA9
:103628000DD07B681B6807F10E021146184601F0A1
:10363800BEF8F863FB6B002B01D0FB6B72E07B6874
:103648005B6C032B36D0FB891A467B681A657B684E
:103658001A687B681B6D1B041946104601F088F830
:10366800F863FB6B002B01D0FB6B5BE07B681B688E
:103678000021184600F06AFE02467B685A667B689D
:103688001B680421184600F061FE02467B689A66B2
:103698007B681B680821184600F058FE02467B68C4
:1036A800DA667B681B680C21184600F04FFE02465C
:1036B8007B681A677B681B680421184600F046FE81
:1036C80003461A0D7B68DA6407F110031946786817
:1036D800FFF7D4FC0346002B02D04FF0805321E0C3
:1036E8007B6819687B681B6D1B0400221C46154605
:1036F80022462B46084600F035FFF863FB6B002B8B
:1037080001D0FB6B0EE07B681D687B686C4603F19B
:10371800100207CA84E8070004330ECB284600F0DD
:1037280079FD002318464037BD46B0BD80B586B048
:1037380000AF78600023BB6000237B6100233B61FE
:103748007B681B68184600F030FFF860FB68002BA8
:1037580001D0FB6872E07B681B68184600F043FFE5
:10376800F860FB68002B0DD07B6800229A647B68A8
:103778001B68184600F019FFF860FB68002B04D09E
:10378800FB685BE07B6801229A647B689B6C012B79
:1037980037D17B681B680021184600F043FFF860AA
:1037A800FB68002B2DD04FF0805347E07B681B68E7
:1037B8000021184600F036FFF860FB68002B01D0A6
:1037C800FB683BE07B681B681E49184600F04CFF0D
:1037D800F860FB68002B02D04FF080532EE07B6826
:1037E8001B680021184600F0B1FD78617B69DB0F8A
:1037F800012B01D1012300E000233B61BB680133A9
:10380800BB60BB684FF6FE72934202D83B69002B3F
:10381800CCD0BB684FF6FE72934202D94FF080734A
:103828000CE07B6903F08043002B03D07B68012206
:103838005A6402E07B6800225A640023184618374D
:10384800BD4680BD000010C180B584B000AF78606F
:1038580039603B68002B02D14FF0006318E07B68A9
:103868001A687B681B6D1B041946104600F0C0FFE0
:10387800F860FB68002B01D0FB6809E07B681B68D7
:103888000021184600F062FD02463B681A600023DA
:1038980018461037BD4680BD80B586B000AF786049
:1038A8000023FB6000233B617B681B6800211846EE
:1038B80000F04CFD034603F00073B3F1007F02D122
:1038C8004FF400632FE007F10C031946786800F005
:1038D80079F878617B69002B01D07B6923E03B692B
:1038E80003F48023002B1CD07B681A687B681B6D4F
:1038F8001B041946104600F095FE78617B69002B81
:1039080001D07B690FE07B681B680221184600F034
:10391800CEFE78617B69002B01D07B6903E0002330
:1039280001E04FF0806318461837BD4680BD80B56A
:1039380086B000AF78600023FB6000233B617B68A2
:103948001B680021184600F001FD034603F00073D0
:10395800B3F1007F02D14FF400632FE007F10C03AD
:103968001946786800F02EF878617B69002B01D041
:103978007B6923E03B6903F48033002B1CD07B6810
:103988001A687B681B6D1B041946104600F04AFE36
:1039980078617B69002B01D07B690FE07B681B682D
:1039A8000021184600F083FE78617B69002B01D066
:1039B8007B6903E0002301E04FF080631846183765
:1039C800BD4680BD90B58FB000AF78603960FDF717
:1039D800BFFA386300237B630023BB600023FB60CE
:1039E8003B68FB627B681B680821184600F0EDFC09
:1039F800B862BB6A002B01D0BB6AB9E07B681A6861
:103A08007B681B6D1B041946104600F00BFEB8625C
:103A1800BB6A002B01D0BB6AAAE04FF0FF333B61C1
:103A280008237B613023BB610223FB6100233B62D7
:103A380001237B627B681B6807F110021146184658
:103A480000F097FC7B681B68184600F052FEB862CD
:103A5800BB6A002B2AD0BB6A8AE07B681B685B6B59
:103A680003F40013002B0FD07B6819687B6B9B0055
:103A780007F10802D418084600F0F7FB0346236054
:103A88007B6B01337B6306E07B681B685B6B03F42D
:103A98000053002B12D0FDF75BFA02463B6BD31A9A
:103AA800B3F1FF3F02D14FF0004361E07B681B6830
:103AB8005B6B03F02A03002BCFD000E000BF7B68CC
:103AC8001B685B6B03F00803002B06D17B681B683F
:103AD8005B6B03F40073002B05D07B681B6808221E
:103AE8009A63082344E07B681B685B6B03F002035E
:103AF800002B05D07B681B6802229A63022337E0FB
:103B08007B681B685B6B03F02003002B05D07B6888
:103B18001B6820229A6320232AE07B681B6840F2F6
:103B28003A529A63FB681A06FB681B0203F47F0388
:103B38001A43FB681B0A03F47F431A43FB681B0EF6
:103B48001A43FB6A1A60FB6A0433FB62BB681A06F5
:103B5800BB681B0203F47F031A43BB681B0A03F408
:103B68007F431A43BB681B0E1A43FB6A1A60002383
:103B780018463C37BD4690BD80B582B000AF78602E
:103B88007B68002B01D101237BE07B685B6A002BFB
:103B980008D17B685B68B3F5827F09D07B68002217
:103BA800DA6105E07B6800221A617B6800225A61AD
:103BB8007B6800229A627B6893F85130DBB2002B55
:103BC80006D17B68002283F850207868FDF72AF830
:103BD8007B68022283F851207B681B681A687B681F
:103BE8001B6822F040021A607B685B6803F48272EB
:103BF8007B689B6803F404431A437B68DB6803F41F
:103C080000631A437B681B6903F002031A437B684D
:103C18005B6903F001031A437B689B6903F4007333
:103C28001A437B68DB6903F038031A437B681B6A15
:103C380003F0800342EA03017B689B6A03F40052A5
:103C48007B681B680A431A607B689B691B0C03F03E
:103C580004017B685B6A03F010027B681B680A43F7
:103C68005A607B681B68DA697B681B6822F400620B
:103C7800DA617B6800225A657B68012283F851204B
:103C8800002318460837BD4680BD80B582B000AF16
:103C980078607B68002B01D1012342E07B6893F8B0
:103CA8004130DBB2002B06D17B68002283F840202C
:103CB8007868FDF71FF87B68242283F841207B6829
:103CC8001B68DA687B681B6822F40052DA6078683F
:103CD80000F02CF87B681B681A697B681B6822F463
:103CE80090421A617B681B685A697B681B6822F0DE
:103CF8002A025A617B681B68DA687B681B6842F491
:103D08000052DA607B6800225A647B68202283F8BC
:103D180041207B68202283F842207B6800225A6376
:103D2800002318460837BD4680BD00002DE9B04F76
:103D3800C0B000AFC7F8F400D7F8F4301B681B69AF
:103D480023F44050D7F8F430D968D7F8F4301A681B
:103D580040EA01031361D7F8F4309A68D7F8F430D1
:103D68001B691A43D7F8F4305B691A43D7F8F43063
:103D7800DB691343C7F8F830D7F8F4301B68DB6801
:103D880023F4164121F00C01D7F8F4301A68D7F85B
:103D9800F8300B43D360D7F8F4301B685B6923F421
:103DA8004070D7F8F4309969D7F8F4301A6840EAC7
:103DB80001035361D7F8F4301A688F4B9A4205D043
:103DC800D7F8F4301A688D4B9A4204D1FEF726FDD5
:103DD800C7F8FC0003E0FEF70DFDC7F8FC00D7F8B4
:103DE800F430DB69B3F5004F40F00C81D7F8FC30B4
:103DF8000022C7F8E830C7F8EC20D7E93A45224650
:103E08002B469118B9655B41FB65D7E91623214616
:103E180012EB0108294643EB01094FF000024FF06D
:103E280000034FEAC90343EA58734FEAC8029046B1
:103E38009946234618EB0303C7F8E0302B4649EBB5
:103E48000303C7F8E430D7F8F4305B680022C7F8FA
:103E5800D830C7F8DC20D7E936120B46DB183B65AB
:103E6800134642EB03037B65D7E91423D7E93801EE
:103E7800FCF7A6F902460B46614BA3FB02235B093C
:103E88001C01D7F8FC300022C7F8D030C7F8D4207E
:103E9800D7E9348942464B469118B9645B41FB64C3
:103EA800D7E91223414612EB010A494643EB010BBD
:103EB8004FF000024FF000034FEACB0343EA5A7376
:103EC8004FEACA0292469B4643461AEB0303C7F8D9
:103ED800C8304B464BEB0303C7F8CC30D7F8F43067
:103EE8005B680022C7F8C030C7F8C420D7E9301291
:103EF8000B46DB183B64134642EB03037B64D7E9AC
:103F08001023D7E93201FCF75BF902460B4611464C
:103F18003B4BA3FB01235B09642202FB03F3CB1A8F
:103F2800DB0003F13202364BA3FB02235B095B0083
:103F380003F4F8731C44D7F8FC300022C7F8B830F3
:103F4800C7F8BC20D7E92E8942464B469118B96379
:103F58005B41FB63D7E90E23414651183963494653
:103F68004B417B634FF000024FF00003D7E90CABE5
:103F78005946CB00514643EA51735146CA00104690
:103F88001946034642469B18C7F8B0304B460A46C6
:103F980042EB0303C7F8B430D7F8F4305B6800226B
:103FA800C7F8A830C7F8AC20D7E92A120B46DB18A7
:103FB800BB62134642EB0303FB62D7E90A23D7E946
:103FC8002C01FCF7FDF802460B460D4BA3FB021330
:103FD8005B09642101FB03F3D31ADB003233084A7F
:103FE800A2FB03235B0903F00702D7F8F4301B6830
:103FF80022449A6006E100BF00100140001401400D
:104008001F85EB51D7F8FC300022C7F8A030C7F85D
:10401800A420D7E9288942464B46911839625B416A
:104028007B62D7E9082341465418494643EB01050A
:104038004FF000024FF00003EB0043EA5473E20034
:1040480014461D464346E318C7F898304B4645EBDF
:104058000303C7F89C30D7F8F4305B680022C7F830
:104068009030C7F894204FF000024FF00003D7E9D2
:10407800244529468B00214643EA917321468A004C
:10408800D7E92601FCF79CF802460B46604BA3FBD8
:1040980002235B091C01D7F8FC300022C7F88830DE
:1040A800C7F88C20D7E9228942464B469118B96156
:1040B8005B41FB61D7E906234146511839614946FE
:1040C8004B417B614FF000024FF00003D7E904AB8E
:1040D8005946CB00514643EA51735146CA0010462F
:1040E8001946034642469B18C7F880304B460A4695
:1040F80042EB0303C7F88430D7F8F4305B6800223A
:10410800BB67FA674FF000024FF00003D7E91E893A
:1041180049468B00414643EA917341468A00D7E9F4
:104128002001FCF74DF802460B461146384BA3FB1D
:1041380001235B09642202FB03F3CB1A1B01323310
:10414800334AA2FB03235B0903F0F0031C44D7F8AE
:10415800FC3000223B677A67D7E91C8942464B4608
:104168009118B9605B41FB60D7E9022341465118B9
:10417800396049464B417B604FF000024FF0000325
:10418800D7E900AB5946CB00514643EA5173514633
:10419800CA0010461946034642469B18BB664B4662
:1041A8000A4642EB0303FB66D7F8F4305B6800224B
:1041B8003B667A664FF000024FF00003D7E9188992
:1041C80049468B00414643EA917341468A00D7E944
:1041D8001A01FBF7F5FF02460B460D4BA3FB021332
:1041E8005B09642101FB03F3D31A1B013233084A2C
:1041F800A2FB03235B0903F00F02D7F8F4301B6816
:1042080022449A6000BF07F58077BD46BDE8B08FAD
:104218001F85EB5184B080B485B000AF786007F19A
:104228001C0080E80E000023FB60FA693B6A1A4311
:104238007B6A1A43BB6A1A43FB6A1A433B6B1343F4
:10424800FA681343FB607B685B6823F4FD4323F043
:104258007F03FA681A437B685A60002318461437AC
:10426800BD465DF8047B04B0704780B483B000AFEE
:1042780078607B68D3F8803018460C37BD465DF807
:10428800047B704780B483B000AF786039603B68C6
:104298001A687B68C3F88020002318460C37BD468F
:1042A8005DF8047B704780B483B000AF78607B68AA
:1042B80003221A60002318460C37BD465DF8047BBC
:1042C800704780B483B000AF78607B681B6803F0E8
:1042D800030318460C37BD465DF8047B704780B46D
:1042E80085B000AF786039600023FB603B681A68CE
:1042F8007B689A603B685A683B689B681A433B68CE
:10430800DB681A433B681B691343FA681343FB6075
:104318007B68DB6823F47F6323F00F03FA681A4392
:104328007B68DA60002318461437BD465DF8047BC5
:10433800704780B483B000AF78607B681B69DBB2DC
:1043480018460C37BD465DF8047B704780B485B0CD
:1043580000AF786039607B6814331A463B681344B1
:10436800FB60FB681B6818461437BD465DF8047B84
:10437800704780B485B000AF786039600023FB6077
:104388003B681A687B685A623B685A687B689A621D
:104398003B689A683B68DB681A433B681B691A43A9
:1043A8003B685B691343FA681343FB607B68DB6A0D
:1043B80023F0F702FB681A437B68DA620023184689
:1043C8001437BD465DF8047B704780B588B000AFF0
:1043D800786039603B68BB601023FB6040233B6119
:1043E80000237B614FF48063BB6107F10803194622
:1043F8007868FFF774FF41F288321021786800F07E
:1044080019FAF861FB6918462037BD4680BD80B5AA
:1044180088B000AF786039603B68BB601123FB60EF
:1044280040233B6100237B614FF48063BB6107F14C
:10443800080319467868FFF752FF41F288321121C4
:10444800786800F0F7F9F861FB6918462037BD462F
:1044580080BD80B588B000AF786039603B68BB60CC
:104468001223FB6040233B6100237B614FF4806390
:10447800BB6107F1080319467868FFF730FF41F27E
:1044880088321221786800F0D5F9F861FB6918467E
:104498002037BD4680BD80B588B000AF78603960F0
:1044A8003B68BB601823FB6040233B6100237B61B2
:1044B8004FF48063BB6107F1080319467868FFF77A
:1044C8000EFF41F288321821786800F0B3F9F861DC
:1044D800FB6918462037BD4680BD80B588B000AF5F
:1044E800786039603B68BB601923FB6040233B61FF
:1044F80000237B614FF48063BB6107F10803194611
:104508007868FFF7ECFE41F288321921786800F0EC
:1045180091F9F861FB6918462037BD4680BD000057
:1045280080B588B000AF78600023BB600C23FB60C7
:1045380040233B6100237B614FF48063BB6107F13B
:10454800080319467868FFF7CAFE054A0C217868FF
:1045580000F070F9F861FB6918462037BD4680BD48
:1045680000E1F50580B58AB000AFF860C7E900231F
:104578003B683B6107237B614023BB610023FB61F0
:104588004FF480633B6207F110031946F868FFF7A0
:10459800A6FE41F288320721F86800F04BF97862EC
:1045A8007B6A18462837BD4680BD80B588B000AF05
:1045B80078600023BB600023FB6000233B6100237D
:1045C8007B614FF48063BB6107F108031946786883
:1045D800FFF785FE786800F065FBF861FB6918460F
:1045E8002037BD4680BD80B588B000AF78604FF4F5
:1045F800D573BB600823FB6040233B6100237B61CC
:104608004FF48063BB6107F1080319467868FFF728
:1046180066FE786800F0F8FAF861FB6918462037FA
:10462800BD4680BD80B588B000AF786039603B6812
:10463800BB603723FB6040233B6100237B614FF461
:104648008063BB6107F1080319467868FFF747FEE6
:1046580041F288323721786800F0ECF8F861FB699C
:1046680018462037BD4680BD80B588B000AF786059
:1046780039603B6843F0004343F48013BB6029234F
:10468800FB6040233B6100237B614FF48063BB6187
:1046980007F1080319467868FFF721FE786800F0EB
:1046A800FFF9F861FB6918462037BD4680BD80B523
:1046B80088B000AF786039603B68BB600623FB6058
:1046C80040233B6100237B614FF48063BB6107F1AA
:1046D800080319467868FFF702FE41F2883206217E
:1046E800786800F0A7F8F861FB6918462037BD46DE
:1046F80080BD80B588B000AF78600023BB603323ED
:10470800FB6040233B6100237B614FF48063BB6106
:1047180007F1080319467868FFF7E1FD41F288328E
:104728003321786800F086F8F861FB69184620376D
:10473800BD4680BD80B588B000AF78600023BB60FF
:104748000223FB60C0233B6100237B614FF480633D
:10475800BB6107F1080319467868FFF7C0FD786860
:1047680000F056F9F861FB6918462037BD4680BD50
:1047780080B588B000AF786039603B68BB600923BA
:10478800FB60C0233B6100237B614FF48063BB6106
:1047980007F1080319467868FFF7A1FD786800F06B
:1047A80037F9F861FB6918462037BD4680BD80B5EA
:1047B80088B000AF786039600023BB600323FB60DA
:1047C80040233B6100237B614FF48063BB6107F1A9
:1047D800080319467868FFF782FD3A68032178686C
:1047E80000F09CF9F861FB6918462037BD4680BD8A
:1047F80080B588B000AF786039603B68BB600D2336
:10480800FB6040233B6100237B614FF48063BB6105
:1048180007F1080319467868FFF761FD41F288320D
:104828000D21786800F006F8F861FB691846203712
:10483800BD4680BD80B588B000AFF8600B467A6091
:10484800FB72704B1B68704AA2FB03235A0A7B68F1
:1048580002FB03F3FB61FB695A1EFA61002B02D1CC
:104868004FF00043C9E0FB685B6BBB61BB6903F0B9
:104878004503002BEFD0BB6903F40063002BEAD19A
:10488800FB685B6B03F00403002B04D0FB68042275
:104898009A630423B1E0FB685B6B03F00103002B10
:1048A80004D0FB6801229A630123A6E0FB68C522B5
:1048B8009A63F868FFF73DFD03461A46FB7A934270
:1048C80001D0012399E00021F868FFF73FFD7861E6
:1048D8007A694E4B1340002B01D100238DE07B6990
:1048E800002B02DA4FF0007387E07B6903F0804306
:1048F800002B01D0402380E07B6903F00053002B9C
:1049080001D0802379E07B6903F08053002B02D02B
:104918004FF4807371E07B6903F00063002B02D0D1
:104928004FF4007369E07B6903F08063002B02D0C9
:104938004FF4806361E07B6903F08073002B02D041
:104948004FF4006359E07B6903F40003002B02D0A5
:104958004FF4805351E07B6903F48003002B02D0AD
:104968004FF4005349E07B6903F40013002B02D095
:104978004FF4804341E07B6903F48013002B02D09D
:104988004FF4004339E07B6903F48023002B02D005
:104998004FF4003331E07B6903F40033002B02D07D
:1049A8004FF4802329E07B6903F48033002B02D085
:1049B8004FF4002321E07B6903F40043002B02D06D
:1049C8004FF4801319E07B6903F48043002B02D075
:1049D8004FF4001311E07B6903F40053002B02D05D
:1049E8004FF4800309E07B6903F00803002B02D031
:1049F8004FF4000301E04FF4803318462037BD46DA
:104A080080BD00BF00000020D34D621008E0FFFD0C
:104A180080B485B000AF78601F4B1B681F4AA2FBAB
:104A280003235B0A41F2883202FB03F3FB60FB6855
:104A38005A1EFA60002B02D14FF0004326E07B6833
:104A48005B6BBB60BB6803F04503002BEFD0BB6812
:104A580003F40063002BEAD17B685B6B03F004036B
:104A6800002B04D07B6804229A6304230EE07B6841
:104A78005B6B03F00103002B04D07B6801229A636F
:104A8800012303E07B68C5229A6300231846143784
:104A9800BD465DF8047B704700000020D34D6210CE
:104AA80080B485B000AF78601A4B1B681A4AA2FB25
:104AB80003235B0A41F2883202FB03F3FB60FB68C5
:104AC8005A1EFA60002B02D14FF000431BE07B68AE
:104AD8005B6BBB60BB6803F04503002BEFD0BB6882
:104AE80003F40063002BEAD17B685B6B03F00403DB
:104AF800002B04D07B6804229A63042303E07B68BC
:104B0800C5229A63002318461437BD465DF8047B16
:104B1800704700BF00000020D34D621080B588B0F8
:104B280000AFF8600B467A60FB72354B1B68354A5C
:104B3800A2FB03235B0A41F2883202FB03F3FB6109
:104B4800FB695A1EFA61002B02D14FF0004352E074
:104B5800FB685B6BBB61BB6903F04503002BEFD0BF
:104B6800BB6903F40063002BEAD1FB685B6B03F0BD
:104B78000403002B04D0FB6804229A6304233AE060
:104B8800FB685B6B03F00103002B04D0FB68012278
:104B98009A6301232FE0F868FFF7CBFB03461A4618
:104BA800FB7A934201D0012325E0FB68C5229A6372
:104BB8000021F868FFF7CAFB78617B6903F460435A
:104BC800002B06D17B691B0C9AB27B681A800023E4
:104BD80011E07B6903F48043002B02D04FF40053AB
:104BE80009E07B6903F40043002B02D04FF48053A3
:104BF80001E04FF4803318462037BD4680BD00BF22
:104C080000000020D34D621080B485B000AF7860FA
:104C1800224B1B68224AA2FB03235B0A41F288321B
:104C280002FB03F3FB60FB685A1EFA60002B02D1FB
:104C38004FF000432CE07B685B6BBB60BB6803F004
:104C48004503002BEFD0BB6803F40063002BEAD1C7
:104C58007B685B6B03F00403002B04D07B680422A1
:104C68009A63042314E07B685B6B03F00103002B59
:104C780004D07B6801229A63012309E07B685B6B9F
:104C880003F04003002B02D07B6840229A63002384
:104C980018461437BD465DF8047B704700000020B5
:104CA800D34D621080B485B000AF7860114B1B689B
:104CB800114AA2FB03235B0A41F2883202FB03F389
:104CC800FB60FB685A1EFA60002B02D14FF00043CC
:104CD80009E07B685B6B03F08003002BF1D07B68F5
:104CE800C5229A63002318461437BD465DF8047B35
:104CF800704700BF00000020D34D621080B500AFA0
:104D08000449054800F0CAF903461A46034B1A70CD
:104D180000BF80BD90020020545100088C02002082
:104D280080B582B000AF0023FB7100F079F803462C
:104D3800012B01D0012312E00B48FDF783FD034648
:104D4800FB71FB79002B09D14FF400610648FEF78F
:104D580065FB0346002B01D00123FB71FB79184644
:104D68000837BD4680BD00BF6401002080B588B00B
:104D780002AFF860B9607A603B600023FB753B685E
:104D880000937B68BA68F9680648FDF703FE034696
:104D9800002B01D00123FB75FB7D18461837BD4653
:104DA80080BD00BF6401002080B588B002AFF86004
:104DB800B9607A603B600023FB753B6800937B68B1
:104DC800BA68F9680648FDF7CBFF0346002B01D007
:104DD8000123FB75FB7D18461837BD4680BD00BF13
:104DE8006401002080B500AF0548FEF7B1FB03461B
:104DF800042B14BF01230023DBB2184680BD00BF7B
:104E08006401002080B582B000AF786079680348FB
:104E1800FEF7D8FA00BF0837BD4680BD6401002000
:104E280080B483B000AF0123FB71FB79DBB2184675
:104E38000C37BD465DF8047B7047000080B582B032
:104E480000AF0346FB710B4B01221A70FFF7CAFF34
:104E58000346002B07D1074B1B78DBB223F0010375
:104E6800DAB2044B1A70034B1B78DBB218460837CA
:104E7800BD4680BD0900002080B582B000AF034662
:104E8800FB710B4B01221A70FFF74AFF0346002BF8
:104E980007D1FB791846FFF7D1FF03461A46044BA2
:104EA8001A70034B1B78DBB218460837BD4680BD25
:104EB8000900002080B582B000AF0346FB71FB7982
:104EC8001846FFF7BBFF034618460837BD4680BDA6
:104ED80080B586B000AFB9607A603B600346FB736B
:104EE8000123FB754FF0FF333A687968B868FFF71C
:104EF8003DFF0346002B07D100BFFFF773FF0346B2
:104F0800002BFAD10023FB75FB7D18461837BD46E8
:104F180080BD80B586B000AFB9607A603B6003465B
:104F2800FB730123FB754FF0FF333A687968B86863
:104F3800FFF73AFF0346002B07D100BFFFF752FFE8
:104F48000346002BFAD10023FB75FB7D1846183762
:104F5800BD4680BD80B58CB000AF03463A60FB719A
:104F68000B46BB71012387F82F30254B1B78DBB22A
:104F780003F00103002B01D003233CE0BB79032B92
:104F880034D801A252F823F0A14F0008A94F000815
:104F9800C14F0008DB4F0008002387F82F3028E0B6
:104FA80007F10C031846FFF72DFF7A6A3B681A6071
:104FB800002387F82F301CE007F10C031846FFF791
:104FC80021FFBB6A9AB23B681A80002387F82F300A
:104FD8000FE007F10C031846FFF714FFBB6A5A0AE3
:104FE8003B681A60002387F82F3002E0042387F813
:104FF8002F3097F82F3018463037BD4680BD00BF98
:105008000900002080B487B000AFF860B96013468B
:10501800FB710123FB750023BB751F4B5B7ADBB269
:10502800002B31D11C4B5B7ADBB21A461A4B00219C
:105038009954194B5B7ADBB2174A9B001344FA6800
:105048005A60154B5B7ADBB21A46134B1344FA7954
:105058001A72114B5B7ADBB25A1CD1B20E4A5172EA
:10506800BB75BB7D3033DAB2BB681A70BB680133DD
:105078003A221A70BB6802332F221A70BB680333B6
:1050880000221A700023FB75FB7D18461C37BD46AD
:105098005DF8047B704700BF9402002080B582B0A1
:1050A80000AF78603960002239687868FFF7AAFF96
:1050B800034618460837BD4680BD0244034693425E
:1050C80000D1704703F8011BF9E7000070B50D4DDA
:1050D8000D4C641BA4100026A64209D10B4D0C4CA4
:1050E80000F018F8641BA4100026A64205D170BD74
:1050F80055F8043B98470136EEE755F8043B9847C6
:105108000136F2E77051000870510008705100082C
:1051180074510008F8B500BFF8BC08BC9E4670473B
:0C512800F8B500BFF8BC08BC9E467047FC
:105134000000000000000000010203040607080943
:1051440000000000010203040006101600061016F9
:10515400814E0008BD4E0008D94E00081B4F0008C0
:045164005D4F000893
:0851680090B0FF7F0100000080
:04517000AD01000885
:0451740089010008A5
:0C5178000024F400100000000101000001
:0400000508000E39A8
:00000001FF
